:020000040800F2
:10000000004000207D530008FD1A0008FF1A000878
:10001000011B0008031B0008051B0008000000006E
:10002000000000000000000000000000071B0008A6
:100030000000000000000000091B00080B1B000866
:10004000C5530008C5530008C5530008C553000830
:10005000C5530008C5530008C5530008C553000820
:10006000C5530008C5530008C5530008C553000810
:10007000C5530008C5530008C5530008C553000800
:10008000C5530008C5530008C5530008C5530008F0
:10009000C55300080F1B0008151B0008C5530008B6
:1000A000C5530008C5530008C5530008C5530008D0
:1000B000C5530008C5530008C5530008C5530008C0
:1000C000C5530008C55300080D1B0008C5530008A0
:0400D000C55300080C
:1001000010B5054C237833B9044B13B10448AFF351
:1001100000800123237010BDD809002000000000DA
:10012000249E00080C4B43B10C480D4910B5AFF3A9
:1001300000800C48036823B910BD0A48036833B92E
:100140007047094B002BF7D0BDE810401847064B0D
:10015000002BF5D0184700BF00000000249E0008C7
:10016000DC090020D80900200000000081F00041D7
:1001700002E000BF83F0004330B54FEA41044FEA8C
:10018000430594EA050F08BF90EA020F1FBF54EA27
:10019000000C55EA020C7FEA645C7FEA655C00F0C3
:1001A000E2804FEA5454D4EB5555B8BF6D420CDD94
:1001B0002C4480EA020281EA030382EA000083EA17
:1001C000010180EA020281EA0303362D88BF30BDB7
:1001D00011F0004F4FEA01314FF4801C4CEA11310D
:1001E00002D0404261EB410113F0004F4FEA03336C
:1001F0004CEA133302D0524263EB430394EA050FF7
:1002000000F0A780A4F10104D5F1200E0DDB02FA65
:100210000EFC22FA05F2801841F1000103FA0EF2F9
:10022000801843FA05F359410EE0A5F120050EF1BF
:10023000200E012A03FA0EFC28BF4CF0020C43FAF0
:1002400005F3C01851EBE37101F0004507D54FF0FD
:10025000000EDCF1000C7EEB00006EEB0101B1F54D
:10026000801F1BD3B1F5001F0CD349085FEA300093
:100270004FEA3C0C04F101044FEA445212F5800F9E
:1002800080F09A80BCF1004F08BF5FEA500C50F13B
:10029000000041EB045141EA050130BD5FEA4C0C1E
:1002A000404141EB010111F4801FA4F10104E9D1A7
:1002B00091F0000F04BF01460020B1FA81F308BF9E
:1002C0002033A3F10B03B3F120020CDA0C3208DD6A
:1002D00002F1140CC2F10C0201FA0CF021FA02F145
:1002E0000CE002F11402D8BFC2F1200C01FA02F1B5
:1002F00020FA0CFCDCBF41EA0C019040E41AA2BFDA
:1003000001EB0451294330BD6FEA04041F3C1CDAA1
:100310000C340EDC04F11404C4F1200220FA04F0C1
:1003200001FA02F340EA030021FA04F345EA03016B
:1003300030BDC4F10C04C4F1200220FA02F001FA2D
:1003400004F340EA0300294630BD21FA04F02946AF
:1003500030BD94F0000F83F4801306BF81F4801148
:100360000134013D4EE77FEA645C18BF7FEA655CBB
:1003700029D094EA050F08BF90EA020F05D054EA8D
:10038000000C04BF1946104630BD91EA030F1EBF92
:100390000021002030BD5FEA545C05D14000494196
:1003A00028BF41F0004130BD14F580043CBF01F589
:1003B000801130BD01F0004545F0FE4141F470016F
:1003C0004FF0000030BD7FEA645C1ABF194610464A
:1003D0007FEA655C1CBF0B46024650EA013406BF4B
:1003E00052EA033591EA030F41F4002130BD00BF0A
:1003F00090F0000F04BF0021704730B54FF48064C7
:1004000004F132044FF000054FF0000150E700BF47
:1004100090F0000F04BF0021704730B54FF48064A6
:1004200004F1320410F0004548BF40424FF0000193
:100430003EE700BF42004FEAE2014FEA31014FEAD6
:1004400002701FBF12F07F4393F07F4F81F0605125
:10045000704792F0000F14BF93F07F4F704730B594
:100460004FF4607401F0004521F0004120E700BF27
:1004700050EA010208BF704730B54FF000050AE0AE
:1004800050EA010208BF704730B511F0004502D5AF
:10049000404261EB41014FF4806404F132045FEAB1
:1004A000915C3FF4DCAE4FF003025FEADC0C18BF56
:1004B00003325FEADC0C18BF033202EBDC02C2F14C
:1004C000200300FA03FC20FA02F001FA03FE40EADE
:1004D0000E0021FA02F11444C1E600BF70B54FF0DE
:1004E000FF0C4CF4E06C1CEA11541DBF1CEA1355C0
:1004F00094EA0C0F95EA0C0F00F0DEF82C4481EA28
:10050000030621EA4C5123EA4C5350EA013518BF47
:1005100052EA033541F4801143F4801338D0A0FB34
:1005200002CE4FF00005E1FB02E506F00042E0FBE1
:1005300003E54FF00006E1FB03569CF0000F18BFE7
:100540004EF0010EA4F1FF04B6F5007F64F540748F
:1005500004D25FEA4E0E6D4146EB060642EAC62122
:1005600041EA55514FEAC52040EA5E504FEACE2E8F
:10057000B4F1FD0C88BFBCF5E06F1ED8BEF1004F92
:1005800008BF5FEA500E50F1000041EB045170BD0E
:1005900006F0004646EA010140EA020081EA030152
:1005A000B4EB5C04C2BFD4EB0C0541EA045170BD4E
:1005B00041F480114FF0000E013C00F3AB8014F1C8
:1005C000360FDEBF002001F0004170BDC4F1000411
:1005D000203C35DA0C341BDC04F11404C4F1200592
:1005E00000FA05F320FA04F001FA05F240EA0200ED
:1005F00001F0004221F0004110EBD37021FA04F623
:1006000042EB06015EEA430E08BF20EAD37070BDDC
:10061000C4F10C04C4F1200500FA04F320FA05F03B
:1006200001FA04F240EA020001F0004110EBD3703D
:1006300041F100015EEA430E08BF20EAD37070BDAD
:10064000C4F1200500FA05F24EEA020E20FA04F386
:1006500001FA05F243EA020321FA04F001F0004135
:1006600021FA04F220EA020000EBD3705EEA430EA6
:1006700008BF20EAD37070BD94F0000F0FD101F0D5
:100680000046400041EB010111F4801F08BF013C0E
:10069000F7D041EA060195F0000F18BF704703F04C
:1006A0000046520043EB030313F4801F08BF013DD3
:1006B000F7D043EA0603704794EA0C0F0CEA13558F
:1006C00018BF95EA0C0F0CD050EA410618BF52EA49
:1006D0004306D1D181EA030101F000414FF000004F
:1006E00070BD50EA410606BF1046194652EA43065D
:1006F00019D094EA0C0F02D150EA013613D195EAD1
:100700000C0F05D152EA03361CBF104619460AD118
:1007100081EA030101F0004141F0FE4141F4700122
:100720004FF0000070BD41F0FE4141F4780170BD12
:1007300070B54FF0FF0C4CF4E06C1CEA11541DBF77
:100740001CEA135594EA0C0F95EA0C0F00F0A7F879
:10075000A4EB050481EA030E52EA03354FEA0131A6
:1007600000F088804FEA03334FF0805545EA1313B9
:1007700043EA12634FEA022245EA111545EA106581
:100780004FEA00260EF000419D4208BF964244F118
:10079000FD0404F5407402D25B084FEA3202B61A37
:1007A00065EB03055B084FEA32024FF480104FF40B
:1007B000002CB6EB020E75EB030E22BFB61A75467F
:1007C00040EA0C005B084FEA3202B6EB020E75EB12
:1007D000030E22BFB61A754640EA5C005B084FEA7A
:1007E0003202B6EB020E75EB030E22BFB61A754647
:1007F00040EA9C005B084FEA3202B6EB020E75EB52
:10080000030E22BFB61A754640EADC0055EA060E12
:1008100018D04FEA051545EA16754FEA06164FEA55
:10082000C30343EA52734FEAC2025FEA1C1CC0D101
:1008300011F4801F0BD141EA00014FF000004FF08E
:10084000004CB6E711F4801F04BF01430020B4F14F
:10085000FD0C88BFBCF5E06F3FF6AFAEB5EB030C07
:1008600004BFB6EB020C5FEA500C50F1000041EB04
:10087000045170BD0EF0004E4EEA113114EB5C04D1
:10088000C2BFD4EB0C0541EA045170BD41F48011A4
:100890004FF0000E013C90E645EA060E8DE60CEAAC
:1008A000135594EA0C0F08BF95EA0C0F3FF43BAFC9
:1008B00094EA0C0F0AD150EA01347FF434AF95EA80
:1008C0000C0F7FF425AF104619462CE795EA0C0F64
:1008D00006D152EA03353FF4FDAE1046194622E731
:1008E00050EA410618BF52EA43067FF4C5AE50EA0B
:1008F00041047FF40DAF52EA43057FF4EBAE12E7FB
:100900004FF0FF3C06E000BF4FF0010C02E000BFDB
:100910004FF0010C4DF804CD4FEA410C7FEA6C5CBE
:100920004FEA430C18BF7FEA6C5C1BD001B050EA61
:10093000410C0CBF52EA430C91EA030F02BF90EA4C
:10094000020F0020704710F1000F91EA030F58BF0B
:10095000994208BF90422CBFD8176FEAE37040F06D
:10096000010070474FEA410C7FEA6C5C02D150EA0B
:10097000013C07D14FEA430C7FEA6C5CD6D152EAC6
:10098000033CD3D05DF8040B704700BF844610468B
:1009900062468C461946634600E000BF01B5FFF78A
:1009A000B7FF002848BF10F1000F01BD4DF808ED5A
:1009B000FFF7F4FF0CBF012000205DF808FB00BF2B
:1009C0004DF808EDFFF7EAFF34BF012000205DF885
:1009D00008FB00BF4DF808EDFFF7E0FF94BF0120D2
:1009E00000205DF808FB00BF4DF808EDFFF7CEFFD3
:1009F00094BF012000205DF808FB00BF4DF808ED12
:100A0000FFF7C4FF34BF012000205DF808FB00BFE2
:100A10004FEA410212F5001215D211D56FF4787326
:100A2000B3EB625212D94FEAC12343F0004343EAC9
:100A3000505311F0004F23FA02F018BF40427047A4
:100A40004FF00000704750EA013005D111F000402E
:100A500008BF6FF0004070474FF00000704700BFC4
:100A60004A0011D212F5001211D20DD56FF478732D
:100A7000B3EB62520ED44FEAC12343F0004343EA82
:100A8000505323FA02F070474FF00000704750EACD
:100A9000013002D14FF0FF3070474FF00000704737
:100AA00053B94AB9002908BF00281CBF4FF0FF31D5
:100AB0004FF0FF3000F09EB9ADF1080C6DE904CEA7
:100AC00000F02AF8DDF804E0DDE9022304B0704705
:100AD000D0B500220E4B06460F46FFF7FFFCFFF78E
:100AE000BFFF0446FFF784FC00220A4BFFF7F6FC29
:100AF00002460B4630463946FFF73CFBFFF7B0FF96
:100B00002346002242EA000210461946D0BD00BF2B
:100B10000000F03D0000F0412DE9F0478C460D4605
:100B20000446089E002B51D18A4217466DD9B2FA6D
:100B300082FEBEF1000F0BD0CEF1200C01FA0EF5B3
:100B400020FA0CFC02FA0EF74CEA050C00FA0EF43F
:100B50004FEA174A250CBCFBFAF81FFA87F90AFB83
:100B600018CC45EA0C4508FB09F3AB420AD9ED194C
:100B700008F1FF3280F02381AB4240F22081A8F1DE
:100B800002083D44ED1AA4B2B5FBFAF00AFB105579
:100B900044EA054400FB09F9A14509D9E41900F12B
:100BA000FF3380F00A81A14540F2078102383C44BE
:100BB000A4EB090440EA08400021002E61D024FA89
:100BC0000EF4002334607360BDE8F0878B4207D9D0
:100BD000002E54D0002186E821000846BDE8F087A9
:100BE000B3FA83F1002940F08E80AB4202D38242F7
:100BF00000F2FA80841A65EB03050120AC46002E52
:100C00003FD086E81010BDE8F08712B90127B7FB86
:100C1000F2F7B7FA87FEBEF1000F34D1EB1B3A0CA6
:100C20001FFA87FC0121B3FBF2F8250C02FB1833F5
:100C300045EA03450CFB08F3AB4207D9ED1908F16F
:100C4000FF3002D2AB4200F2D1808046ED1AA3B24F
:100C5000B5FBF2F002FB105543EA05440CFB00FC27
:100C6000A44507D9E41900F1FF3302D2A44500F2EC
:100C7000B8801846A4EB0C0440EA08409DE73146D2
:100C80003046BDE8F087CEF1200405FA0EF307FAEE
:100C90000EF720FA04F83A0C25FA04F448EA03089F
:100CA000B4FBF2F14FEA184502FB11441FFA87FC2E
:100CB00045EA044501FB0CF3AB4200FA0EF409D9F6
:100CC000ED1901F1FF3080F08A80AB4240F287805D
:100CD00002393D44EB1A1FFA88F5B3FBF2F002FB30
:100CE000103345EA034500FB0CF3AB4207D9ED197D
:100CF00000F1FF386FD2AB426DD902383D44EB1A98
:100D000040EA01418FE7C1F1200722FA07F88B4042
:100D100005FA01F448EA030320FA07FE4FEA134CF0
:100D2000FD404EEA040EB5FBFCF94FEA1E440CFBF5
:100D300019551FFA83F844EA054509FB08F4AC424B
:100D400002FA01F200FA01FA08D9ED1809F1FF30B0
:100D500043D2AC4241D9A9F102091D442D1B1FFA0F
:100D60008EFEB5FBFCF00CFB10554EEA054400FB73
:100D700008F8A04507D9E41800F1FF3529D2A045AD
:100D800027D902381C4440EA0940A4EB0804A0FB20
:100D900002894C45C6464D4615D312D056B1BAEB22
:100DA0000E0364EB050404FA07F7CB401F43CC4065
:100DB000376074600021BDE8F0871846F8E6904679
:100DC000E0E6C245EAD2B8EB020E69EB0305013852
:100DD000E4E72846D7E7404691E78146BEE701466B
:100DE00078E702383C4445E7084608E7A8F10208DE
:100DF0003D442BE7704700BF844641EA000313F0EF
:100E000003036DD1403A41D351F8043B40F8043B11
:100E100051F8043B40F8043B51F8043B40F8043BD4
:100E200051F8043B40F8043B51F8043B40F8043BC4
:100E300051F8043B40F8043B51F8043B40F8043BB4
:100E400051F8043B40F8043B51F8043B40F8043BA4
:100E500051F8043B40F8043B51F8043B40F8043B94
:100E600051F8043B40F8043B51F8043B40F8043B84
:100E700051F8043B40F8043B51F8043B40F8043B74
:100E800051F8043B40F8043B403ABDD2303211D314
:100E900051F8043B40F8043B51F8043B40F8043B54
:100EA00051F8043B40F8043B51F8043B40F8043B44
:100EB000103AEDD20C3205D351F8043B40F8043B14
:100EC000043AF9D2043208D0D2071CBF11F8013B12
:100ED00000F8013B01D30B8803806046704700BFD8
:100EE000082A13D38B078DD010F003038AD0C3F1E7
:100EF0000403D21ADB071CBF11F8013B00F8013BC9
:100F000080D331F8023B20F8023B7BE7043AD9D387
:100F1000013A11F8013B00F8013BF9D20B7803705C
:100F20004B7843708B7883706046704700000000F8
:100F300000000000000000000000000000000000B1
:100F400090F800F06DE9024520F007016FF0000C09
:100F500010F0070491F820F040F049804FF00004B1
:100F60006FF00700D1E9002391F840F000F108008C
:100F700082FA4CF2A4FA8CF283FA4CF3A2FA8CF3C4
:100F80004BBBD1E9022382FA4CF200F10800A4FA2B
:100F90008CF283FA4CF3A2FA8CF3E3B9D1E904237F
:100FA00082FA4CF200F10800A4FA8CF283FA4CF3B6
:100FB000A2FA8CF37BB9D1E9062301F1200182FA70
:100FC0004CF200F10800A4FA8CF283FA4CF3A2FA76
:100FD0008CF3002BC6D0002A04BF04301A4612BA84
:100FE000B2FA82F2FDE8024500EBD2007047D1E987
:100FF000002304F00305C4F100004FEAC50514F016
:10100000040F91F840F00CFA05F562EA05021CBFE6
:1010100063EA050362464FF00004A9E74FEA410C7A
:101020007FEA6C5C02D150EA013C0AD14FEA430CE2
:101030007FEA6C5C02D152EA033C02D14FF000001F
:1010400070474FF0010070474FEA4102B2F1E043B0
:1010500024BFB3F5001CDCF1FE5C0DD901F0004C9F
:101060004FEAC0024CEA5070B2F1004F40EB8300EF
:1010700008BF20F00100704711F0804F21D113F11B
:101080003872BCBF01F00040704741F480114FEA54
:101090005252C2F11802C2F1200C10FA0CF320FADD
:1010A00002F018BF40F001004FEAC1234FEAD323FA
:1010B00003FA0CFC40EA0C0023FA02F34FEA430364
:1010C000CCE77FEA625307D150EA01331EBF4FF0ED
:1010D000FE4040F44000704701F0004040F0FE4008
:1010E00040F40000704700BF07B5002000F032FB5D
:1010F0001048114D01F060FC104801F05DFC104BF0
:101100001E6EB04702210C4801F000FE0028F8D006
:10111000284601F014FE02AC022104F8010D284615
:1011200001F0FDFD00220121204600F007FC00F047
:101130001DFBE6E720A10008005000403EA100088A
:101140009CA00008014B01221A607047F40900209E
:10115000014B01225A607047F4090020014801F058
:101160002BBC00BF64A10008014801F025BC00BFF2
:1011700070A100082DE9F04104460E480E461746BE
:10118000984601F019FC0C48013E01F015FC651E63
:1011900034440A4EA54206D1424639460848BDE8C5
:1011A000F04101F009BC15F8011F304601F004FCC4
:1011B000F0E700BF7EA1000889A1000891A1000806
:1011C00097A10008054B00F11C02904201D10020BC
:1011D000704710F8011B03F8011FF6E7FFFFFF1F20
:1011E000044900235A5CC25401331C2BFAD100205D
:1011F000704700BF000000200B480C4B10B5836007
:101200000B4B03610B4BC3600B4C0C4B43610C4B02
:101210008361236808309847E36A9847094801F0DA
:10122000CBFB002010BD00BFF409002045110008D1
:1012300075110008511100089CA0000869110008F0
:101240005D110008C0A1000810B52F4C0122217FBC
:10125000206A01F04FFC0022217F206A01F0F6FC99
:101260002A4B4FF480021A60402283F81623217F14
:10127000206A01F0DBFC20B92548BDE8104001F0F0
:101280009BBB2448244C01F097FB0821204602F028
:10129000B9FA02460028F8D10121204801F0F0FCFB
:1012A00072B6BFF34F8F30BF032001F00BFE62B662
:1012B000012211461A4C194801F0E2FC194801F0CC
:1012C0007BFB2168184801F077FB6168174801F043
:1012D00073FBA168164801F06FFBE168154801F047
:1012E0006BFB2169144801F067FB6169134801F049
:1012F00063FBA169124801F05FFBE1691148BDE899
:10130000104001F059BB00BF0000002000E100E0E8
:10131000CAA10008F6A100080030004000F4014016
:10132000001800400BA2000820A200082FA200080D
:101330003EA200084DA200085CA200086BA20008B3
:101340007AA2000889A200080A480B4B10B58360F6
:101350000A4B03610A4BC3600A4C0B4B43610B4BB6
:101360008361236808309847E36A9847FFF76CFF6A
:10137000002010BDF4090020451100087511000877
:10138000511100089CA00008691100085D110008B7
:101390002DE9F047FF298AB08246894667D8354C47
:1013A000354D364E002323606360354BA360354BCB
:1013B0002361354BE360354B6361354BA36104F129
:1013C00008002B689847EB6830689847337A314AB1
:1013D000377CD35C96F90410F268367E022E06D173
:1013E000A2F10B06F6B2012E8CBF002601262A4878
:1013F00008904FF000084FF0080E0120D2B2CDF84F
:1014000008E0049001970092CDF81C804246CDF888
:101410001880CDF81480CDF80C80EF69B8471F48CC
:1014200080F83B60283003F05BFBAB6D404698478B
:10143000AB6A5FFA89F15046984723680BB9636835
:101440003BB12368012B07D1154801F0B5FA002004
:101450000AE02B6E9847F0E76368012BF7D111483B
:1014600001F0AAFA4FF0FF300AB0BDE8F0876FF044
:101470000100F9E7F40900209CA00008000000200A
:101480004511000875110008511100086911000884
:101490005D110008409E0008C0D40100CC0F002060
:1014A00098A20008A3A2000829482A4B2DE9F04180
:1014B0008360294B0361294BC360294D294B2A4E78
:1014C00043612A4B83618AB02B6808309847EB68E8
:1014D0003068984796F81880337A254AB8F1020F99
:1014E000D15CF268337C0AD1A2F10B085FFA88F86C
:1014F000B8F1010F8CBF4FF000084FF001081E2714
:101500000024012002970827D2B2099005908DE8A7
:10151000900008940794069404940394AF69B84724
:10152000144880F83B80283003F0DAFA2046AB6D8F
:101530009847706940B96B6B98470F4801F03CFAC7
:1015400000200AB0BDE8F0816B6E2046F4E700BFD2
:10155000F409002045110008751100085111000818
:101560009CA0000869110008000000205D1100081F
:10157000409E0008CC0F0020B1A2000808B502F080
:1015800031F9002008BD02207047000030B5184D29
:101590000FCD8FB007AC0FC495E8070084E80700B3
:1015A0006846FFF71DFE0099124801F005FA0199FF
:1015B000114801F001FA029910480EAB03EB8103C8
:1015C00053F81C2C01F0F8F903990D4801F0F4F9D7
:1015D00004990C480A1D01F0EFF905990A4801F039
:1015E000EBF90699094801F0E7F900200FB030BD8A
:1015F000489E0008C0A20008D2A20008E6A2000887
:1016000004A3000812A3000829A300083FA30008B0
:1016100010B596B004461C2200210FA803F002FF6B
:101620000DAB05930CAB04930BAB03930EAB029382
:101630000AAB019309AB009307AA08AB18492046EF
:1016400003F03EFF082802D0032016B010BD079B10
:10165000B3F57A7F3CBF134A53430F93089B03F1C2
:1016600009021F2AF0D81093099B062BECD811937E
:101670000A9B5A1F072AE7D812930B9B5A1F032A6B
:10168000E2D8043B13930C9B012BDDD814930D9BE4
:10169000022BD9D80FA81593FFF794FD0020D4E7AB
:1016A0005BA3000840420F00A0F13003DBB2092B1E
:1016B0000CD9A0F16103052B02D85738C0B270478E
:1016C000A0F14103052B03D83738F7E718467047D8
:1016D000FF20704770B503780BB9022070BD134E20
:1016E0000246002451780029F7D01078FFF7DCFF7C
:1016F000FF280546F1D00846FFF7D6FFFF28ECD0BB
:1017000040EA0510A0559078631C99B238B9074893
:10171000FFF73EFE00280CBF0120082070BDFF2B04
:101720001C4602F10202DDD1032070BD180A002020
:1017300008B5FFF7B9FE00280CBF0120072008BD3F
:1017400008B5FFF759FD012008BD08B5FFF7FCFDFE
:10175000012008BD044B00B1186000225A609A6055
:10176000DA601A615A617047180B00202DE9F74FB3
:101770006C4C6369012B0AD16B4801F01DF972B6FC
:101780006368A3600023E360636162B62361674F0F
:10179000674EE36813B903B0BDE8F08FA368E218A1
:1017A000117E0D2902D00A2940F09E800133202BA2
:1017B00008BF0023A36072B6E368013BE36062B632
:1017C0002269002AE5D02244002382F8383072B61C
:1017D0001D46D95D29B9023B8E468D421DD000229F
:1017E00005E0082908BF01350133F2E70132B85C92
:1017F0000828FBD18AB1501E3A44984207D32044AE
:10180000013180F838E080F839E0023BE5E712F872
:1018100001CF02F802CC0130EFE762B694F838301D
:10182000412B5FD194F83930542B5BD194F83A3086
:101830004BB9002006EB8000D0F8900001F0BCF816
:1018400000232361A5E73F2B0CD13A4801F0B4F8FF
:1018500000251835A82DECD0731953F8040C01F0AD
:10186000ABF8F6E7DFF8D0B04FF00008182303FB21
:1018700008F106EB01093048D9F804A0715801932A
:10188000524603F04BFE019B38BB1BF80A203D2A51
:101890000BEB0A030BD03F2A1AD01ABBD9F8102041
:1018A000184690470C2828BF0C20C0B2C2E7184643
:1018B00010F8012F3F2A05D19B781BB9D9F80830C1
:1018C0009847EFE7182303FB0868D8F80C30F7E7D0
:1018D000D9F8140001F070F8ABE708F10108B8F18D
:1018E000060FC4D10220A5E7226940F2FF308242F0
:1018F00005D100230C48236101F05EF849E701336C
:10190000501C202B2244A36008BF0023206182F8D2
:10191000381008BFA36072B6E368013BE36062B6AB
:1019200037E700BF180B00207BA30008500B0020F6
:10193000649E000896A30008520B00200C4BDA6846
:101940000132212ADA6006D101225A612022DA60AE
:101950001B6863B118475A680078511C1A44202943
:10196000107608BF0022596008BF5A60F0E7704740
:10197000180B0020F0B5022289B00C212648274D13
:1019800001F07EF901221146254801F079F9284637
:1019900001F01EFA01211B2001F010FB032301249A
:1019A00000264FF416578DF8083001A91C2328464D
:1019B0008DF8093001978DF80A608DF80B608DF86D
:1019C0000C608DF80D4001F0C3F922462846022133
:1019D00001F078F93146284601F08FF92146284672
:1019E00001F078F90F4B402283F8092304A8A5F5EC
:1019F000005501F012FF4FF4807304A92846ADF89A
:101A00001A308DF81C40049701F01EFF214628462D
:101A100001F011FF09B0F0BD00FC01400050004092
:101A200000F4014000E100E010B50121022001F0C6
:101A300045FD01211F2001F0C1FA01211B2001F009
:101A4000BDFA01210D2001F0B9FA0121202001F099
:101A5000B5FA0121212001F0B1FA0121222001F083
:101A6000ADFA0121412001F0A9FA0121032001F082
:101A7000A5FA01210E2001F0A1FA0121002001F0B8
:101A80009DFA0B4C642001F02FF8012001F01EFAA2
:101A900003F0ACF920460022062101F0F1F82046BF
:101AA0000022072101F0ECF8BDE81040FFF762BF0B
:101AB00000F0014008B5FFF7B7FFFFF715FB002066
:101AC00008BD000008B50A4B1A680AB9094A1A602D
:101AD0001A6809491044884206D903F075FC0C23A2
:101AE00003604FF0FF3008BD1860104608BD00BF0E
:101AF000500F0020A8110020004000207047FEE792
:101B0000FEE7FEE7FEE7704770477047704702F058
:101B10005BBD000038B5094D094C2978206801F0FB
:101B2000A5F8012808D12068297801F088F805482F
:101B3000BDE8384000F040BF38BD00BF1C000020A9
:101B400020000020FEA600089A4238BF8854704743
:101B500070472DE9F84F1F460D9BDDF82880DDF812
:101B60002C900E4699070546144606D1A9EB020AA9
:101B70000C990AEB0203994212D808EB090A914426
:101B8000A9EB0A02C245424412D10D9B9B0704D522
:101B90000C9AA9EB04039A4210D84846BDE8F88F86
:101BA00002F1010B3B4631462020A8475A46DFE7A9
:101BB0003B4631461AF8010DA847E1E74A4609F1CC
:101BC00001083B4631462020A847C146E0E72DE901
:101BD000F04F0F9E099D0A9C9DF82CC0DDF830E067
:101BE000DDF834800E9F16F0020F1DD14FB116F0B4
:101BF000010F06D0BCF1000F02D116F00C0F00D07F
:101C0000013F05EB04094FF0300A444541D305EB91
:101C1000040906F0010A4FF0300BBAF1000F03D0AF
:101C2000BC4201D21F2C3AD916F0100F1FD016F467
:101C3000806F39D1C4B3444501D0BC4234D1B4F132
:101C4000010830D0BEF1100F3ED1023C16F0200F3B
:101C500035D11F2C15D84FF0780E05F804E001346B
:101C60001F2C0ED84FF0300E05F804E001341F2C65
:101C700007D8BCF1000F29D04FF02D0E05F804E075
:101C800001340C960B970A940995BDE8F04FFFF7C5
:101C900060BF1F2CBBD8013409F801ABB5E7013494
:101CA00009F801BBB9E74446BEF1100FCED0BEF132
:101CB000020FD5D11F2CE4D84FF0620ECDE71F2CB8
:101CC000DFD84FF0580EC8E74446F0E716F0040F8F
:101CD00002D04FF02B0ED1E716F0080FD1D04FF005
:101CE000200ECBE72DE9F04190B0169DDDF860E0C5
:101CF0001B9F0DB927F010077C0500D585B317F0A1
:101D0000200F4FF0000614BF4FF0370C4FF0570C68
:101D1000B5FBFEF40EFB1454E4B2092C06F10106E7
:101D20000DF1200894BF30346444B044E4B208F8A4
:101D3000014CB5FBFEF50DB1202EE9D11A9C05949E
:101D4000199C04949DF85C40029408AC0697CDF869
:101D50000CE001960094FFF73AFF10B0BDE8F08167
:101D60002E46EBE72DE9F04F95B0DDE91E89269D63
:101D700009909B4658EA090308BF25F010059246D2
:101D80006A050A91229E239F02D558EA09033DD095
:101D900015F0200F14BF3723572300240B93404620
:101DA000494632463B46FEF77BFED2B2092A88BF3F
:101DB0000B9B04F1010488BFD2180CAB98BF3032E2
:101DC0002344D2B203F8012C40463B4649463246F2
:101DD000FEF766FE8046894658EA090301D0202CAA
:101DE000DDD1259B0593249B04939DF880300293BD
:101DF0000CAB00930695039601945B4652460A99F4
:101E00000998FFF7E4FE15B0BDE8F08F0024E8E77D
:101E1000014610B1014801F0FBBC704700300040A2
:101E20002DE9F04F97B092469B46DDE920230790BD
:101E3000089110461946DDF88890239F249EFEF7EE
:101E4000B5FD60B903230193A74B03960297009356
:101E500052465B4608990798FFF77BFE42E04FF039
:101E6000FF326FF48013DDE92001FEF7A9FD28B1F0
:101E700004230193039602979C4BE8E74FF0FF324F
:101E80009B4BDDE92001FEF7B9FD68B1994A039645
:101E900006F00403002B08BF0322974B02971CBFD8
:101EA000134604220192D2E78BA3D3E90023DDE994
:101EB0002001FEF7A3FD38B989A3D3E90023DDE9AA
:101EC0002001FEF77DFD80B19DED207B04960397F8
:101ED000CDF808908DED007B5B4652460899079837
:101EE00000F012F917B0BDE8F08F00220023DDE901
:101EF0002001FEF765FD002876D0DDE920230020D3
:101F00000021FEF737F9CDE920010123099316F4EA
:101F1000806F08BF4FF0060900230EAA3021B9F1E7
:101F2000090F1C4606D9D154631C202B09F1FF3937
:101F3000F5D11C46DDE92001FEF76AFD6F4B03EB8E
:101F4000C90393ED007B05468DED0A7BFEF760FA31
:101F500002460B46DDE92001FEF70CF9DDE90A2314
:101F6000FEF7BCFACDE90C01FEF77AFD8046FEF7DC
:101F70003FFA02460B46DDE90C01FEF7FBF80022B2
:101F80005F4BCDE90C01FEF739FD78B308F101088C
:101F90004046FEF72DFA02460B46DDE90A01FEF740
:101FA00019FD10B101354FF00008B9F1000F4BD108
:101FB0002846FEF72DFA02460B46DDE92001FEF722
:101FC000D9F800224E4B80468946FEF7F9FC30B125
:101FD00000224B4B40464946FEF710FD10B1E80782
:101FE00000D501350A2358E0099090E70022444BC0
:101FF000DDE90C01FEF7E4FC0028D6D1B8F1000FB2
:1020000002D018F0010FD0D008F10108CDE701345B
:10201000B8FBF3F1101903FB118808F1300800F840
:10202000018C09F1FF39884681B9A1443021202C67
:102030000ED0A14504F101031FD116AA14442E228B
:1020400004F8202C1C46CDE70EAA0A23202CDED152
:1020500006F00303012B0EAB25D127B3099A12B961
:1020600016F00C0F00D0013F3022A7421BD91F2CC5
:1020700016D9039602970194E9E611551C46D6E756
:102080000EAA0134111995FBF3F203FB12553035FA
:1020900001F8015C1546002ADAD01F2CF0D9D7E7E9
:1020A0001A550134E1E71F2CE3D8099A32B116AA78
:1020B00022442D2102F8201C0134DAE7710703D5F0
:1020C00016AA22442B21F5E73207D2D516AA2244BC
:1020D0002021EFE7AFF300800000000065CDCD4187
:1020E0000000000065CDCDC126A700082AA7000882
:1020F000FFFFEF7F1DA7000822A70008289F000808
:102100000000E03F000000002DE9F04F2DED028BB4
:1021100093B09DED1E7B1F46219B0E920D9353ECB9
:10212000172B09900C9117EE100A19468DED067BBE
:10213000209E229DFEF73AFC80B14FF0FF32C04B4B
:10214000DDE90601FEF75AFC40B94FF0FF326FF4AB
:102150008013DDE90601FEF733FC90B19DED067BAF
:102160000D9B0E9A0C99099821933B462295209637
:102170008DED1E7B13B0BDEC028BBDE8F04FFFF779
:102180004FBE00220023DDE90601FEF719FC0028FE
:1021900000F03E81079BDDF818A003F1004B15F419
:1021A00080630F93CBF30A53A3F2FF3307EE903A09
:1021B000DFEDA46A9FEDA47ADFF8B092F8EEE77A3B
:1021C00008BF0626A7EEA67A4FF00008B6EE008AF2
:1021D00017EE100AFEF72EF9CDE90A019B499C4B38
:1021E0004FF0FF3000EA0A0001EA0B01002240EA4A
:1021F000080041EA0901FDF7BDFF8BA3D3E90023E5
:10220000FEF76CF902460B46DDE90A01FDF7B4FF63
:10221000FEF7FEFB07EE900AB8EEE77ADFED8D7A67
:10222000A7EE278A0446DFED8C7ABDEEC88AF8EE69
:10223000C86A67EEE67ADFED896AE7EE267A17EE7E
:10224000900AFEF7F7F802460B46CDE90A01FEF7C1
:1022500045F9DDE90A238046894610461946FDF70F
:102260008BFF0022CDE910017D4B40464946FEF729
:102270005FFA00227B4BFDF77FFF02460B4640468C
:102280004946FEF755FA0022774BFDF775FF0246E7
:102290000B4640464946FEF74BFADDE90A238046E5
:1022A000894600204FF08041FDF764FF02460B464F
:1022B00040464946FDF760FF02460B46DDE9100146
:1022C000FEF736FA0022694BFDF756FF18EE103A7A
:1022D00003F2FF3E00224FEA0E53FEF7FFF8CDE96E
:1022E0000A0102460B4650465946FEF769FB40B1CB
:1022F000DDE90A0100225B4BFEF71AFACDE90A017B
:10230000013C04F16303C72B34BF4FF004084FF0C6
:1023100005082B051DD546A3D3E900235046594691
:10232000FEF762FB002876D043A3D3E90023504692
:102330005946FEF745FB00286DD0B442B8BF361BA6
:102340004FF00008B4BF06F1FF36002645F4806563
:1023500044460D9B43458CBFA3EB08094FF0000991
:1023600015F002030F9304D0B8F1000F18BF4FF01F
:1023700000093CB150465946DDE90A23FEF7D8F979
:1023800082468B4600220023DDE90601FEF718FB9A
:1023900010B10BF100439B4625F400630493CDF884
:1023A0000C900296CDE900AB3B460E9A0C99099829
:1023B000FFF736FDB8F1000F25D015F0200F0246CB
:1023C00000F101053B4614BF452065200C99099E8C
:1023D000B0470523059308F1FF33049300230393CB
:1023E000002C4FF00A0302934FEAD473B8BF644243
:1023F000019300943B462A460C990998FFF772FC1A
:102400000F9B002B3CD113B0BDEC028BBDE8F08FCD
:10241000DDE906ABC3E6002E9BD00F9B002B98D0C6
:10242000013E96E7AFF3008000000060A787D23F2F
:10243000000000E0E2361A3F0000000080842E41D8
:10244000FFFFEF7F9B209A3E4451343EFFFF0F0079
:102450000000F83F789A54401872313F8E5D134067
:1024600000002C4000002440000018400000F03F15
:10247000441C02463B4620200C99099DA847204653
:102480000E9B0D9AC31A9A42F2D8BCE72DE9F04F81
:1024900091B01E460A92B34A1A9D1346002918BFEE
:1024A000034688460B930024307870B90A9B0B9D35
:1024B0009C422CBF03F1FF3222460A9B414600207A
:1024C000A847204611B0BDE8F08F252806F1010687
:1024D00008D004F1010922460A9B0B9C4146A04703
:1024E0004C46E1E73346002218461E4610F8011B11
:1024F0002B2916D00AD8202916D0232917D0A1F1CC
:10250000300EBEF1090F57D8002118E02D2905D053
:102510003029F4D142F001020346E5E742F002021D
:10252000FAE742F00402F7E742F00802F4E742F06B
:102530001002F1E70C980A2606FB001130390C91C5
:102540001E4613F8011BA1F130000928F2D9337897
:102550002E2B51D17178A1F13000092842F480620C
:1025600006F101033FD84FF000091E4613F8011B86
:10257000A1F13000092830D933786C2B46D03ED8F1
:10258000682B4AD06A2B52D03078652800F05681EB
:1025900000F29A80472800F051814BD8452800F07E
:1025A0004D8100F23281224604F101090A9B0B9C05
:1025B0004146A047013693E72A290BD12B68002B0F
:1025C00005F10401BCBF5B4242F002020C930646D7
:1025D0000D46BCE700230C93B9E70A2000FB09195C
:1025E000A9F13009C1E72A2905D12B68023623EA6F
:1025F000E3790435C0E71E464FF00009BCE7742BB1
:1026000001D07A2BC0D142F480720BE073786C2B2E
:10261000F9D142F440720236B6E77378682B03D0E2
:1026200042F080020136AFE742F0C002F3E742F425
:102630000072F7E7622803D1022322F00C0213E0B4
:1026400005D85828AFD142F020021023F5E76328BF
:1026500000F015816428A6D1692822F010024FF0FD
:102660000A0301D06428E8D1570548BF22F00102CF
:10267000692802F4007102D0642840F09280002999
:1026800053D0073525F0070101F1080503C904936C
:1026900000230593CB0F029300280B46089273F199
:1026A00000010C9A0792CDF81890024602DA4242D5
:1026B00063EB4303CDE9002341460A9B0B98224676
:1026C000FFF750FB04464BE06F2801D10823B4E725
:1026D00006D8672800F0B280C0F097806928BAE772
:1026E000732800F006811BD870287FF45CAF0823A4
:1026F00004931023029342F0210200230592CDF8A7
:102700000C9001932B68009322460A9B0B9841463C
:10271000FFF7E8FA05F1040A044601365546C3E618
:10272000752899D0782890D03DE712F4807F05F184
:10273000040A19D02968059200290C9A02934FEADD
:10274000D173B8BF49420492CDF80C900193009127
:1027500022460A9B0B984146FFF7C4FA55460446A9
:102760000136A1E6511B000812F0400F296814D071
:10277000C9B2059202930C9A0492CB0F00295546D8
:10278000CDF80C900193B8BF494200910A9B0B9879
:1027900022464146FFF7A6FA94E7150648BF09B25C
:1027A000E7E781B108920C9A07920735002225F0DD
:1027B0000701CDF8189004930592029201F10805E3
:1027C000D1E9002376E712F4807F05F1040A09D0ED
:1027D00005920C9A0492CDF80C90029301912B680B
:1027E0000093B5E712F0400F29680AD0C9B20592EC
:1027F00002930C9A049200235546CDF80C90019355
:10280000C3E7100648BF89B2F1E7462808BF42F087
:102810002002049207350C9A039225F00703CDF8A5
:10282000089003F10805D3E900234146CDE90023D0
:102830000B980A9B2246FFF7F3FA43E700F0DF0309
:10284000472B04BF00F0FD0042F40062452808BF9A
:1028500042F02002049207350C9A039225F00703F8
:10286000CDF8089003F10805D3E900234146CDE9EE
:1028700000230B980A9B2246FFF746FC22E712F042
:1028800002030D9328D19B460C9B04EB0B0A0BF122
:1028900002090BF1010B5B4517D80A9B287805F15B
:1028A000040B524641460B9DA8470D9B0AF10104BB
:1028B00043B109F1FF39A9EB0A0A0C9A04EB0A03A8
:1028C0009A420DD801365D46EEE50A9B0B9F5246B3
:1028D00041462020B847D7E7A2464FF00109DCE780
:1028E000651C22460A9B0B9C41462020A0472C4693
:1028F000E3E72B1D0D932D682E4B002D08BF1D46C1
:10290000B9F1000F14BF4B464FF0FF332B44AB46D9
:102910009BF8001031BB12F48063ABEB050B0E93F8
:1029200025D112F002030F932CD15B46E41A0C99C7
:10293000994204EB030203F1010B1CD8A2EB050A38
:102940000AEB050215F8010BF0B90F9B144633B1E1
:10295000ABEB020B0C9A04EB0B039A4221D8013625
:102960000D9DA1E55B45D6D00BF1010BD0E7CB4522
:1029700028BFCB46D5E70A9B0B9F41462020B8478E
:102980005B46D4E72246D9E70E9B2BB109F1FF3312
:10299000B9F1000FD9D099460A9B0B9C4146A0473C
:1029A000CEE7651C22460A9B0B9C41462020A0478F
:1029B0002C46CFE72FA700080FB41FB506AA02A91F
:1029C00052F8043B0392009204484FF0FF32FFF7A5
:1029D0005DFD05B05DF804EB04B07047111E000802
:1029E0000EB40FB505AA014652F8043B03920092BB
:1029F00004484FF0FF32FFF749FD04B05DF804EBE7
:102A000003B07047491B0008064B0748E02283F8D3
:102A10002220C0210023C2180133252B82F8001385
:102A2000F9D1704700ED00E000E100E00E4A08B582
:102A3000D2F8883043F47003C2F888304FF08042F7
:102A4000D36843F08003D360084B5A6922F47022A4
:102A500042F480325A619A689207FCD5FFF7D4FF9E
:102A6000BDE8084000F004B800ED00E000000240BE
:102A700008B5012000F036FA0B4B984213D90B4AE7
:102A80000133B0FBF3F313704FF47A73084AB0FBD1
:102A9000F3F0084B0138E021586082F8231000223F
:102AA0009A6007221A6008BD3F420F00540F0020B1
:102AB00000ED00E010E000E030B5094B094A1B785A
:102AC000556863B194685843002391688C42FCD0E8
:102AD000234498BF5B195B1A83420C46F5D330BD83
:102AE000540F002010E000E04FF47A735843FFF7D2
:102AF000E3BF000010B50123062A00F28A80DFE858
:102B000002F004101D2C3A49670002688B401A43FA
:102B1000026082681A438260C16821EA0303C360CD
:102B200010BD02688B401A43026082681A438260BB
:102B3000C2681A43C26001690B430CE002688B4013
:102B40001A43026082681A438260C2681A43C260F4
:102B5000016921EA0303036110BD04688B40DA4375
:102B60001440046081681140816041680A404260FD
:102B700081690B430CE002688B40DB431A40026022
:102B800082681A40826042681A40426081690B4044
:102B9000836110BD244B98424FF001030DD10729EA
:102BA0000BD984698B40DA431440846181680A4000
:102BB000826002681A430260BDE704688B40DA4312
:102BC0001440046081680A40826042681A43CEE77C
:102BD000154B98424FF001030CD107290AD984699B
:102BE0008B40DA4314408461816811408160016840
:102BF0000A40E0E704688B40DA43144004608168CF
:102C00001140816041680B43436083691A408261CF
:102C100010BD02688B401A4302608268DB431A4091
:102C20008260C1680B407AE700FC014042690123E1
:102C300003FA01F1114214BF184600207047C36A1D
:102C40004A00032191401940C162704770B5154692
:102C50000C46FFF7F4FF6100836A03228A4023EAEF
:102C6000020305FA01F21A43826270BDC26A0323AD
:102C7000490003FA01F1114214BF012000207047FE
:102C8000072910B511D90E4B083998420BBF01EB3B
:102C90004101890007230F238B4002FA01F1C26B27
:102CA00022EA03031943C16310BD8900836B0F241B
:102CB0008C4023EA040302FA01F11943816310BD39
:102CC00000FC0140436812B119434160704723EA98
:102CD0000101FAE7C36803F00603062BFAD1036883
:102CE00041B143F000730360C36803F00603062B91
:102CF000FAD1704723F00073F5E7436819B143F444
:102D000000734360704723F40073FAE7C3689B07BE
:102D1000FCD58368194214BF012000207047C368A6
:102D200003F00603062BFAD18160C36803F00603A3
:102D3000062BFAD17047C068C0F3C000704708B5D1
:102D40000346FFF7F8FF00B11869C0B208BD0000E4
:102D500070B50C46054600F02BF9E37910F0FB0F37
:102D6000184808BF4FF4004033BB237A3BBB637A5B
:102D7000002B0CBF00264FF080766279A379216882
:102D800013432279104C1343B0FBF1F201FB120004
:102D900004EA82244A0802EB0012B2FBF1F20B496A
:102DA000234301EA821213433343EA6802F0060226
:102DB000062AFAD12B6070BD4FF48006DDE74FF490
:102DC0000006DAE780EE360000FCFF03C0FF3F009C
:102DD00008B5094B98420DD100211B2000F0EEF8F8
:102DE00001211B2000F0E8FB00211B20BDE808406A
:102DF00000F0E2BB08BD00BF00500040294A536804
:102E000043F0100310B55360274B1B689C0701BFAC
:102E1000536823F4700343F480135360234A136907
:102E200043F0040313611F4B1A6881B122F02002A2
:102E300002281A600ED81A6822F0030210431860A4
:102E400000292BD01A4B04225A6030BF10BD42F02B
:102E50002002EDE7174B1A6892060AD5164C174A5E
:102E60009C619A611A6822F020021A6000229C611B
:102E70009A61134A13685C045CBF43F48043136097
:102E8000084B1A6842F003021A605A6803280CBF04
:102E900042F0807222F080725A60D1E740BF20BFBA
:102EA00020BF10BD001800401020001000ED00E011
:102EB00000E100E000000240BFAE9D8C1615141327
:102EC000308000400121FFF799BF0000044A1368D9
:102ED00018B143F080031360704723F08003FAE7D2
:102EE0000C8000404FF080431B6803F4E043B3F5CF
:102EF000804F06D007D8B3F5805F0FD0B3F5005FE1
:102F00000CD01B4B0CE0B3F5C04F17D0B3F5E04F1E
:102F100016D0B3F5A04FF4D1164B01E04FF40043A7
:102F200002280FD0032818D0012805D14FF0804285
:102F30001268C2F30322D340184670470E4BEFE7E6
:102F40000E4BEDE74FF080421068C0F30320C34002
:102F50001068C0F34210C340EEE74FF080421068A3
:102F6000C0F30320C3401068C0F3C230F3E700BFD2
:102F700000366E010048E80180EE3600006CDC028D
:102F80004FF08043986800F4C03070474FF08043A2
:102F9000986800F4C04070474FF08043986800F490
:102FA000C05070474FF08043986800F4C06070478D
:102FB0004FF08043586800F00C00704741284AD811
:102FC000DFE810F036022C0222020302F101D201E6
:102FD0007C01720168015E0154014A01400118013F
:102FE0000E01DB00EF00E500D1004900C700BD0085
:102FF000B300A8009E0094008A006B006100570097
:103000004D00420022012C013601490049004900CF
:103010004900490049004900490049004900490068
:103020004900490053024A0240025D02A7014900DB
:103030004900490049004900490049004900490048
:1030400049004900670271024FF08043DA6819B104
:1030500042F48012DA60704722F48012FAE74FF0EF
:103060008043DA6811B142F40022F3E722F400222F
:10307000F0E74FF08043DA6811B142F48022E9E7CB
:1030800022F48022E6E74FF08043DA6811B142F47F
:103090000032DFE722F40032DCE74FF08043DA68E9
:1030A000A1B142F48032DA604FF080439A6A02F0B4
:1030B0003F023F2AFAD15A6959B142F004025A61DB
:1030C0004FF08042936A5907FCD5704722F4803252
:1030D000E9E722F00402F2E74FF08043DA6811B129
:1030E00042F40042B6E722F40042B3E74FF08043D7
:1030F000DA6811B142F48042ACE722F48042A9E7D9
:103100004FF08043DA6811B142F40052A2E722F492
:1031100000529FE74FF080431A6919B142F0200234
:103120001A61704722F02002FAE74FF08043DA6814
:1031300011B142F480528DE722F480528AE74FF0B9
:103140008043DA6811B142F4006283E722F400623E
:1031500080E74FF08043DA6811B142F4806279E78A
:1031600022F4806276E74FF08043DA6811B142F4CE
:1031700080726FE722F480726CE74FF08043DA6868
:1031800011B142F0200265E722F0200262E74FF021
:103190008043DA6811B142F080025BE722F08002DE
:1031A00058E74FF08043DA68A1B142F04002DA609C
:1031B0004FF080439A6A02F03F023F2AFAD15A69DF
:1031C00059B142F008025A614FF08042936A1B07DE
:1031D000FCD5704722F04002E9E722F00802F2E74E
:1031E0004FF08043DA6811B142F0100232E722F06A
:1031F00010022FE74FF08043DA6811B142F00072FD
:1032000028E722F0007225E74FF08043DA6811B119
:1032100042F080721EE722F080721BE74FF080437D
:10322000DA6811B142F4000214E722F4000211E757
:103230004FF08043DA6811B142F480020AE722F4C9
:10324000800207E74FF08043DA6811B142F00802CC
:1032500000E722F00802FDE64FF08043DA6811B182
:1032600042F00402F6E622F00402F3E64FF0804357
:10327000DA6811B142F00202ECE622F00202E9E65D
:103280004FF08043DA6811B142F00102E2E622F029
:103290000102DFE64FF08043DA6811B142F00062CC
:1032A000D8E622F00062D5E64FF08043DA6811B12B
:1032B00042F08062CEE622F08062CBE64FF080439F
:1032C0001A69A1B142F400721A619A6A02F03F02CF
:1032D0003F2AFAD15A6942F010025A614FF08043F6
:1032E0009A6AD006FCD51A6942F0100218E722F05B
:1032F00010021A619A6A02F03F023F2AFAD15A6913
:1033000022F010025A614FF08042936AD906FCD530
:1033100070474FF080431A69A1B142F480521A619C
:103320009A6A02F03F023F2AFAD15A6942F020021B
:103330005A614FF080439A6A9206FCD51A6942F4AA
:103340000062EDE622F400621A619A6A02F03F021E
:103350003F2AFAD15A6922F020025A614FF0804286
:10336000936A9806FCD570474FF080431A69A1B163
:1033700042F008021A614FF080439A6A02F03F025D
:103380003F2AFAD15A6959B142F001025A614FF00D
:103390008042936AD907FCD5704722F00802E9E71A
:1033A00022F00102F2E74FF080431A6931B142F096
:1033B00004021A611A6942F04002B1E622F00402E6
:1033C0001A611A6922F04002AAE64FF080431A6996
:1033D000A1B142F002021A614FF080439A6A02F0F2
:1033E0003F023F2AFAD15A6959B142F002025A61AA
:1033F0004FF08042936A9B07FCD5704722F002028F
:10340000E9E722F00202F2E74FF08043DA6811B1F7
:1034100042F080521EE622F080521BE64FF08043BD
:103420001A6911B142F001027AE622F0010277E650
:103430004FF080431A6911B142F0800270E622F029
:1034400080026DE64FF080431A6911B142F4807238
:1034500066E622F4807263E64FF08043DA6809B1D1
:103460001A43F7E522F08042F4E54FF08043DA6832
:1034700011B142F00052EDE522F00052EAE54FF0C2
:1034800080431A6911B142F4806249E622F48062F5
:1034900046E64FF08043DA6811B142F40012D9E5F4
:1034A00022F40012D6E54FF08043DA6811B142F001
:1034B0000042CFE522F00042CCE5000010B50C46FA
:1034C000052870D8DFE800F003151F28335E364A60
:1034D0003649136834B123F0200313608B685B070F
:1034E000FCD510BD43F0200313608B685C07FCD44F
:1034F00010BD2F4A136819B123F40043136010BDA7
:1035000043F40043FAE72A4A136811B123F4C04395
:10351000F4E743F4C043F1E7234A136823F01803A8
:1035200011B143F00803E9E743F01003E6E7012196
:103530000E20FFF743FD1F4BD3F80421CCB19006BA
:103540000BD4D3F8042142F02002C3F80421D3F8AD
:10355000042122F08002C3F80421D3F8042142F0B0
:103560000402C3F80421134AD2F808319907FBD5A5
:1035700010BD22F00402C3F80421D3F808219207F9
:10358000FBD410BD084A0949136834B123F0400345
:1035900013608B68002BFCDA10BD43F0400313600E
:1035A0008B68002BFCDB10BD1880004000820040BF
:1035B00008800040009000403F2810B417D82F2802
:1035C00018D94FF08042A0F13004012351B9D169DC
:1035D000A3400B433428D3611AD15C205DF8044B1F
:1035E000FFF76ABAD169A34021EA0303D3615DF80A
:1035F000044B7047A0F12003022B8CBF04460D241E
:103600004FF08042012369B99169A3400B43936154
:103610001B289DBF064B23FA00F0C0430120C307BF
:10362000E5D4DAE79169A34021EA03039361DEE779
:103630006800010808B500210320FFF7BFFC012145
:103640000320FFF7B9FF00210320BDE80840FFF782
:10365000B3BF0000034940F6FF53CA6A33EA0202CF
:10366000FBD1704700E0004008B5FFF7F3FF054BC2
:103670001A6818B142F080521A6008BD22F08052D8
:10368000FAE700BF00E0004008B5FFF7E3FF054B95
:103690001A6818B142F080721A6008BD22F0807278
:1036A000FAE700BF00E00040012808B50AD8FFF79C
:1036B000D1FF054B1A6801280CBF42F0007222F0BE
:1036C00000721A6008BD00BF00E00040F0B500289D
:1036D0005BD02E4F3C46796B8EB2626C636C9A4223
:1036E000FBD1A36CA56CAB42FBD1656BADB2AE4216
:1036F000F1D1002EEFD089B207EE901AC2F3021179
:1037000002F00F0401EB810104EB4101C171C2F32E
:10371000C221C2F3C31401EB810104EB41018171A9
:10372000C2F3814101EB8101C2F3833202EB41021A
:103730004271C3F3011203F00F0102EB820201EBAD
:1037400042020271C3F38022F8EEE77A9100DFEDC6
:10375000106A0A44B6EE007AC3F3831101EB420209
:10376000A7EEA67AC270C3F3C2228270C3F383426B
:1037700002EB8202C3F38333FCEEC77A03EB42030E
:1037800003F5FA63C0ED027A0380F0BD00E000406B
:103790000024F44180280BD0402809D0431EDAB21F
:1037A0001F2A9DBF084BD340DB430123DB0701D415
:1037B000012900D97047054B9A6A0CBF104322EAD1
:1037C00000009862704700BF8B80008000E00040DE
:1037D00008B518B1FFF73EFF014B986108BD00BF67
:1037E00000E00040BFF34F8F0449054BCA6802F464
:1037F000E0621343CB60BFF34F8FFEE700ED00E0C4
:103800000400FA0583690B4214BF012000207047B1
:1038100083699B06FCD401607047602303714FF4F9
:10382000E13303604FF4407200234371837142819E
:10383000038103737047036B19B143F00103036302
:10384000704723F00103FAE738B5036B23F0010357
:103850000363C36A23F01003C36200238363484BEE
:10386000984204460D460CD1FFF78AFBC00B022894
:1038700026D0032864D0012864D00220FFF732FB51
:1038800020E0B0F1402F04D1FFF780FBC0F34F30B0
:10389000EDE73C4B98420BD1FFF77EFBC0F3CF2006
:1038A00002280DD003284BD001284BD00320E5E798
:1038B000354B9842FAD1FFF775FBC0F34F20EFE785
:1038C0004FF400402B681A01904256D36BB1B0FB05
:1038D000F2F102FB1102D200B2FBF3F202F001039B
:1038E00003EB52039BB243EA01431A0C03F03F037C
:1038F0006262A362E36A2A7923F060031343E362FE
:10390000E36AAA7923F008031343E3622B7BDBB15C
:10391000E36A43F01003E3626B79012B18D028D3DC
:10392000022B1ED0236B6A8923F440731343236355
:10393000236B2A8923F4404313432363002038BDBB
:103940001248BFE71248BDE7E36A23F01003E2E73D
:10395000E36A43F00203E362E36A23F00403E362F1
:10396000E0E7E36A43F00203E362E36A43F004033F
:10397000F5E7E36A23F00203F1E74FF0FF3038BDCB
:1039800000300040000001400010014000366E0190
:1039900080EE3600FFF7A8B810B501F081FA0446B2
:1039A00001F00CFB064B1B68001B002103B910BD86
:1039B0001A6890423ABF121A1A6019605B69F5E7FB
:1039C000580F0020054B1A680AB100215172186087
:1039D000012342614372006801F020BA580F0020B1
:1039E00000230360436003724372C160036143615B
:1039F0007047000070B5044601F0F6FA74B11B4D33
:103A000029680B4673B962682260012222726372D0
:103A100061B901F0D3FA2046FFF7D4FFBDE870404A
:103A200001F0E4BA9C42F9D05B69EBE701F0D0FA0F
:103A300022682B680244226019688A42064605D231
:103A4000FFF7AAFF23689B1B2360E4E759695869C5
:103A500010B95C616061E1E70868824202D90B46F7
:103A60004969F4E75C616161D8E700BF580F002045
:103A700038B5154D044601F0B7FA2B6803B11CB9EF
:103A8000BDE8384001F0B2BA0022A342227213D13D
:103A9000597A5C6969B15A724CB12C60FFF77CFFAE
:103AA0002B6801225A72186801F0B8F9E8E701F0B2
:103AB000EDF92C60E4E713465A69002AE0D09442FD
:103AC000F9D162695A61DBE7580F002038B5044626
:103AD0000D46FFF7CDFF2560656038BD08B501F0E4
:103AE000E7F9034BD3E902238018594108BD00BF11
:103AF000580F002038B504460D46FFF7EFFF001BB6
:103B000061EB050138BD012070470000034B1B68C5
:103B100013B15B6803B11847704700BF6C0F0020FA
:103B2000034B1B6813B1DB6803B11847704700BF34
:103B30006C0F0020002000F0DBBD000010B5134C1E
:103B4000206000F011FF002000F0D2FD012000F005
:103B50007CFE0021084601F0A7F80421002000F0B7
:103B60005BFF0023194618461A4600F0C7FE0849B5
:103B70000848FFF735FF08490848FFF731FF0849B3
:103B80000848FFF72DFF0020207110BD6C0F0020AA
:103B90000D3B000808100020213B00084C110020BC
:103BA000113D00082011002008B500F01FFD03386A
:103BB000C0B202289ABF024B185C002008BD00BFAB
:103BC000789F000800F0E4BE08B501F07AF808BD5F
:103BD00001F04EBB01F016BB38B50C46002340F295
:103BE00001211A460546084600F088FE00F00EFF47
:103BF0000B4B01280A480CBFDC731C7200F0D4FF89
:103C000021462846002200F09FFD064B0648996891
:103C1000FFF75CFF0448BDE83840FFF7EBBE00BF8C
:103C2000CC0F00206C0F00200810002008B54FF0CA
:103C3000040000F04BFD0220BDE80840FFF7AABEDB
:103C400000F0BEBD184B37B593F838500F2805F17A
:103C50000D05EDB222D8072822D8032822D8012842
:103C600094BF0024012400234FF4C0711A46084673
:103C700000F044FE002300930A222946204600F06B
:103C8000F5FF00F0BBFD4FF4FA610848FFF71EFF97
:103C9000064803B0BDE83040FFF7ACBE0424E2E7BD
:103CA0000324E0E70224DEE7CC0F002020110020EF
:103CB00010B50C462DED028B08EE102A00F068FEC0
:103CC000204601F031FB00F0A5FDDFED0A7A0A4C39
:103CD000B8EEC88A204628EE278AFCEEC87A17EE8E
:103CE000901AFFF7F3FEBDEC028B2046BDE81040B2
:103CF000FFF780BE00007A444C11002001F05CBA4E
:103D000001F08CBA08B501F0BDF9033008BD000020
:103D100010B5002000F070FC044B1B682BB19B69B0
:103D20001BB10020BDE81040184710BD6C0F0020EB
:103D300030B598B10A4A0123111DDC000D1955F860
:103D4000085CA84206D351F83350A84202D222445C
:103D5000107A30BD0133162BEFD1FEE71F2030BDA6
:103D6000789F00080128074804D1074BC1731970D8
:103D700000F01ABFC379012B03D1034B01721970F4
:103D8000F6E77047CC0F002024000020012810B572
:103D9000094C05D0002000F029FE0023637310BDFC
:103DA00000F024FE207B637B834204D06073BDE877
:103DB000104000F003B810BD6C0F00200D4B10B583
:103DC0000446187358730120FFF7E0FF5CB13421FB
:103DD0004FF4E86001F016FA442140F24170BDE86A
:103DE000104001F00FBA14214FF4E86001F00AFA14
:103DF0002421F2E76C0F002038B50120FFF7C6FF41
:103E0000002000F0ABFC00252C460120FFF7C2FD8E
:103E100000F057FF00F00100A8400135202D44EAD2
:103E20000004F2D101F096FA0444FFF7FFFE2046A9
:103E300038BD0000002340F2422110B51A46044666
:103E4000084600F05BFD34B109482146FFF73EFE0D
:103E50000748FFF7CFFD074B9A7B2AB16FF07F40F1
:103E6000BDE8104000F07ABC18698001F8E700BF97
:103E70004C1100206C0F00202DE9F0410D469046BA
:103E80001C46FFF783FF284600F082FD0020FFF765
:103E9000D1FF0120FFF77EFDFFF720FE0027064639
:103EA000002530463946FFF725FEA94208BFA0424B
:103EB00005D30124FFF7BAFE2046BDE8F08100F0EB
:103EC00000FF00B28045ECDA0024F3E70023022172
:103ED00010B51A460446084600F010FD34B10948F2
:103EE0002146FFF7F3FD0748FFF784FD064B9A7B59
:103EF0002AB16FF07F40BDE8104000F045BC186962
:103F00008001F8E74C1100206C0F0020F7B5504CF1
:103F10002379002B00F08A804E4D01F065F80023D4
:103F2000237101F063F82B88D9070AD54A48FFF7B7
:103F30009FFD012000F060FB236813B11B6803B1F3
:103F400098472B889A0731D54448FFF791FDA67B07
:103F500096B9012000F050FB314640F6021001F006
:103F600051F940F6441001F083F940F00201C9B262
:103F700040F6441001F046F9394E3A48FF220DF15F
:103F8000070100F0CFFE304600F0E4FE23686BB17D
:103F90009F685FB12B885B0608D496F90D3096F9BF
:103FA0000C209DF807102F481A44B8472B88580654
:103FB00009D5A37B13B9012000F01EFB236813B1C0
:103FC0001B6903B198472B8819060DD52648FFF7C2
:103FD0004FFD012000F010FB23682BB19B691BB142
:103FE0002888C0F3002098472B889A050ED500F04A
:103FF000FDFA04281CD11848FFF73AFD012000F013
:10400000FBFA236813B15B6803B198472B889B06C2
:104010000CD51248FFF72CFDA37B13B9012000F04B
:10402000EBFA236813B1DB6803B1984703B0F0BD26
:1040300000F0DCFA0528E9D10848FFF719FD012056
:1040400000F0DAFA2368002BE0D0DB68DCE700BF81
:104050006C0F0020C80F0020081000204C11002019
:104060003811002020100020201100200A2838B527
:104070000DD8084B03EBC003D3E92E45012088403F
:10408000FCF7C6F922462B46FCF752FB38BD00244C
:104090000025F3E7789F00082DE9F04F85B015461D
:1040A0009DF84C2000929DF85C20794F9DF844804B
:1040B000BDF84040BDF83C90BA73002A06468B46D6
:1040C00018BF0024DFF8E8A1B8F1000F09D09DF86F
:1040D00048208AF8002036B1012E6BD005B0BDE82B
:1040E000F08FFF22F5E7304600F099FB694B019312
:1040F0000B22584683F8286083F83420DD62FFF7EE
:1041000017FE019B04221A7118225A719AF8002096
:104110001A72009A1E704FEAC90988F001089E7150
:1041200083F83500A3F8029083F807801E46012328
:10413000002A3DD0F2227272B372FFF7FBFC96F8B0
:104140002800003018BF0120FFF720FE524800F081
:10415000C7FC504800F028FD504A1068516802AB77
:1041600003C302A800F065FA40F2FF1000F092FAD3
:104170002846FCF73DF902460B4600204849FCF76B
:10418000D7FA0022474BFCF7A9F98046204689461A
:10419000FCF73EF902460B4640464946FCF79EF9BD
:1041A0000022414BFCF79AF9FCF75AFC386195E77D
:1041B0007372C1E70020019300F031FBE0B200F020
:1041C00039FB3A4A334C019B84F828605A44EEB2DA
:1041D00092F8180184F8386084F8390084F83A308D
:1041E000BBF1000F34D10B3D012D36D8012384F8EB
:1041F0003B300123053E9E4223703BD8B9F10B0FA3
:1042000038D80C23A3819AF80030E3739DF800306E
:10421000237401209DF85830637484F80E80FFF7F2
:10422000B5FD1D4800F05CFC1A4800F0BDFC637C45
:10423000012B40F2367020D101F01AF800F0FB019A
:1042400040F2367000F0DEFF4FF6FF733B6145E74A
:10425000BBF1010F01D10C2DC8D03146FFF706FF8D
:1042600009A3D3E90023FCF7BFFB0028BED184F8E3
:104270003B00BEE7A4F80C90C5E700F0F9FF40F062
:104280000401C9B2DCE700BF000000A04761304074
:104290006C0F0020CC0F0020F40F002088A0000835
:1042A0000000F03F0000204000408F40789F000851
:1042B00024000020000000002DE9F34788469246C4
:1042C0000A99BDF830609DF834909DF83870054625
:1042D00048B1012844D040F6890000F0C9FF40F001
:1042E0000401C9B280E0524C0B2284F82800184621
:1042F000E16284F83420FFF71BFD0423F6002371EC
:1043000089F001091823637184F83500C4F830A0DE
:1043100025706680A57184F807900123F7B1F22219
:104320006272A372FFF706FC94F82800003018BFF1
:104330000120FFF72BFD3F4800F0D2FB3C4800F086
:1043400033FC3D4A106851686B4603C3684600F071
:1043500070F940F2FF1000F09DF9BCE76372E0E7EE
:10436000364A334C1A4484F82800CDB292F818012A
:104370009DF82C2084F8385084F8390084F83A20CD
:10438000002B3ED10B3901293FD8012384F83B3063
:104390000123691F9942237044D80B2E42D80C2365
:1043A000A381274B84F80E901B78E3739DF844306B
:1043B00063742774FFF7BEFB94F82800003018BF21
:1043C0000120FFF7E3FC1B4800F08AFB184800F0CF
:1043D000EBFB94F83930062B7FF47DAF40F6890073
:1043E00000F046FF00F0FB0140F6890000F00AFFF4
:1043F000404600F099FF134B129A9A6002B0BDE854
:10440000F087012B01D10C29BFD02946FFF72EFEE2
:1044100005A3D3E90023FCF7E7FA0028B5D184F817
:104420003B00B5E7A681BCE7000000A04761304033
:10443000CC0F0020F40F002088A00008789F00080F
:10444000240000206C0F00202DE9F84F884620B191
:1044500001283DD00020BDE8F88F574BDFED576AAB
:1044600059795A8802EBD10207EE102ADA79F8EE70
:10447000C77A002AB7EE007A08BFB0EE667A37EE48
:10448000277A07EE908A5A7AF8EEE77A022A37EE10
:10449000277AF0EE007A18BFF0EE667A77EE877A28
:1044A000B2EE007A67EE877A93ED0B7AB8EE477A30
:1044B000C7EE876ADFED427A66EEA77A17EE900ABA
:1044C000FBF7B8FF05F0D4FBFCF7CAFABDE8F88F9C
:1044D000394C94F8385094F839002946FFF7C6FD56
:1044E000A38907EE903AF8EEE77AB1EE017A77EE1B
:1044F000877A06460F4617EE900AFBF79BFF324677
:104500003B46FBF7EBFFA37BC5EB48088246207CCC
:10451000012B08F1070808EB80080CBF14200020CD
:10452000C0EB88008B46FBF773FF94F83B30002B01
:10453000804614BF02200020281A80008946FBF71D
:1045400067FF02460B4640464946FCF7F1F805F086
:1045500073FA804694F83A0000F00300894604306C
:10456000FBF756FF42464B46FBF7B8FF00220023FD
:1045700004460D46FCF742FA0022124B28B12046B1
:104580002946FBF7F9FD02460B4630463946FBF754
:10459000A5FF52465B46FBF7EFFD05A3D3E90023D9
:1045A000FBF7EAFD05F0D8FA8EE700BFAFF3008015
:1045B000000000E0CEF7EF3FCC0F0020000000002D
:1045C00000007A440000204008B5064B01221A7111
:1045D00000F0B0F9044B18804FF6FF70BDE80840BA
:1045E00000F0F6BB6C0F0020C80F0020014B1878BC
:1045F000704700BF800F0020014B1870704700BF4C
:10460000800F002008B5074B1A7812B11B78062BD3
:1046100003D100F06FFD00F08DFEBDE8084000F012
:104620005DBD00BF800F00200A460146002000F05B
:104630002BBE08B5014608224FF4D86000F0BCFD3F
:10464000002008BD07B5030A8DF80430064B8DF82D
:1046500005005B782BB9022201A940F2BC6000F092
:10466000ABFD03B05DF804FB800F002007B5030A23
:104670008DF80430064B8DF805005B782BB90222CB
:1046800001A940F2BE6000F097FD03B05DF804FBA5
:10469000800F00200C4B5B7810B504469BB94FF49B
:1046A000D76000F0E5FDC4F3002300F0FE011943DC
:1046B0004FF4D76000F0A6FDE1B240F2B960BDE86A
:1046C000104000F09FBD10BD800F002013B502AC5C
:1046D00004F8040D00F036FE01222146842000F08B
:1046E00021FD024B00221A7002B010BD800F002085
:1046F00007B502A9012201F8010D802000F012FD8A
:104700009DF80720044B22B901221A7003B05DF80E
:1047100004FB0222F9E700BF800F002007B5094B18
:104720008DF8060004221A70030C8DF80430032261
:10473000030A01A983208DF8053000F0F3FC03B0D3
:104740005DF804FB800F002010B51446FFF76CFFE6
:104750002046BDE81040FFF7E1BF000007B5094B58
:104760008DF8060005221A70030C8DF80430032220
:10477000030A01A982208DF8053000F0D3FC03B0B4
:104780005DF804FB800F002013B50C4B0446052296
:10479000962140F6AC001A7000F034FD230C8DF821
:1047A00004300322230A01A982208DF805308DF8F8
:1047B000064000F0B7FC02B010BD00BF800F002023
:1047C00007B5030C8DF80030030A8DF801300B0C8F
:1047D0008DF802008DF803308DF805100B0A0622C3
:1047E000694694208DF8043000F09CFC024B0622B0
:1047F0001A7003B05DF804FB800F002008B500229A
:104800001146C52000F08EFC014B07221A7008BD2E
:10481000800F002000221146D12000F083BC07B594
:1048200002A9012201F8010D9F2000F07BFC03B0DA
:104830005DF804FB07B502A9012201F8010DA020D3
:1048400000F070FC03B05DF804FB07B502A901227B
:1048500001F8010D962000F065FC03B05DF804FB43
:10486000184B984207B50DD9E1238DF80430E923A0
:104870008DF80530022201A9982000F053FC03B006
:104880005DF804FB104B984204D9D7238DF804300F
:10489000D823EDE70D4B984204D9C1238DF804309D
:1048A000C523E5E70A4B984204D975238DF80430F7
:1048B0008123DDE7074B9842DCD96B238DF8043068
:1048C0006F23D5E700E9A43580F8A9328044E52DAF
:1048D000000B6B1B40FC541907B58DF80620042211
:1048E0008DF804008DF8051095200DEB02018DF870
:1048F000073000F017FC03B05DF804FB13B5040AA1
:104900008DF801008DF80310080A8DF80520110AB2
:104910001A0A8DF8062008228DF802008DF804107E
:10492000104669468DF800408DF8073000F0FAFB1C
:1049300002B010BD07B5022201A9122000F018FC38
:104940009DF804009DF8053043EA002003B05DF8AF
:1049500004FB07B502A9012201F8010D9D2000F01A
:10496000E1FB03B05DF804FB08B500F04DFB00F07F
:104970008BFB00F0BFFB0020FFF7BAFE0120FFF722
:10498000E8FF024B01221A7008BD00BF800F002013
:1049900037B5154CA37805461BB9FFF761FF012316
:1049A000A3702846FBF724FD0DA3D3E90023FBF7F2
:1049B000BFFEFCF755F8030E8DF804300422030CFB
:1049C0008DF805308DF80700030A0DEB02018620F3
:1049D0008DF8063000F0A6FB03B030BDAFF30080C9
:1049E000000000008084EE3F800F002007B5064BDA
:1049F00002A9587001F8010D01228A2000F092FBF3
:104A000003B05DF804FB00BF800F0020014B587815
:104A1000704700BF800F002037B5044600200D46C8
:104A200000F085FC0128034624D10F2C02464FF0EC
:104A3000000113D10620FFF74FFF0E24182140F686
:104A4000E70000F0DFFB022201A98E208DF8044070
:104A50008DF8055000F066FB03B030BD0420FFF771
:104A60003BFF6FF002039C42B8BF1C460E2CA8BF50
:104A70000E24E3E740F6D80000F0FAFB40F01E01F8
:104A8000C9B240F6D80000F0BDFB134B18780228DD
:104A900018D0032806D0012818D10346002205218A
:104AA000032003E00221012300220846FFF714FF40
:104AB0006FF002039C42B8BF1C46162CA8BF1624F8
:104AC0003821BCE7012300220321EFE70123002264
:104AD00007210420EAE700BF910F0020000000003A
:104AE00013B50023009301932D4B04465B780078A7
:104AF000834201D0FFF77AFF23781BB1012B37D017
:104B000002B010BD6068FBF773FC02460B4620A1A3
:104B1000D1E90001FBF70CFE0022224BFBF7DEFC83
:104B2000FBF79EFF030C8DF80030030A8DF801306F
:104B3000237B8DF802008DF80330A068637B8DF82D
:104B40000430FBF755FC14A3D3E90023FBF7F0FD79
:104B5000FBF786FF030C8DF80530030A8DF806304D
:104B60008DF80700082269468B2000F0DBFAC7E7C2
:104B7000237C8DF80030637C8DF80130A37C8DF8A8
:104B80000230E37C8DF803300422ECE7AFF30080C1
:104B90000000000080847E41000000008084EE3F21
:104BA000800F0020000040401FB5002301930293B6
:104BB0008DF80C302C4B04465B780078834201D092
:104BC000FFF714FF23781BB1012B39D004B010BDBF
:104BD000637AF12B28D14FF6FF70FFF733FD48F2CF
:104BE0000500FFF743FD022362888DF80520110AB6
:104BF00022798DF8062062798DF80720A2798DF848
:104C00000820E2798DF809208DF80B30227AA37AFA
:104C10008DF80A208DF804108DF80C30092201A9B6
:104C20008C2000F07FFAD1E7F22BDDD141F60F5056
:104C3000FFF708FD41F22100FFF718FD0623D3E737
:104C4000A3898DF805301A0AA37B8DF80630E37B23
:104C50008DF80730237C8DF80830637C8DF80420B4
:104C60008DF809300622DAE7800F002013B5049C86
:104C70008DF80330230C8DF800008DF801108DF8AD
:104C800002208DF804300522230A694688208DF819
:104C900005308DF8064000F045FA024B07221A70E5
:104CA00002B010BD800F002007B502228DF804006D
:104CB0008DF805108F2001A900F034FA03B05DF8DB
:104CC00004FB07B5012201A9152000F051FA9DF857
:104CD00004004042401003B05DF804FB37B50446C1
:104CE0000D46022201A9132000F042FA0C4B5B781A
:104CF000012B11D140F2047000F0BAFAC0F3C710D2
:104D0000012809D140F2027000F0B2FA20709DF83B
:104D100005302B7003B030BD9DF804302370F6E7EA
:104D2000800F0020F7B50D4602A90024064601F8C1
:104D3000014D28461746FFF7D1FF2A78BA4207D817
:104D40009DF80700314600F0C5FA204603B0F0BDDB
:104D50000120FBE713B50322044601A9142000F04B
:104D600007FA1A4A5178217049B1012917D0142243
:104D70000021204600F056FB0F2323700DE09DF824
:104D8000043023719DF80530A1605B425B10A37174
:104D90009DF806305B425B10637102B010BD9DF858
:104DA00004305B425B1023739DF8053019064ABF3F
:104DB000A3F580739B089B1063739DF806305B42DC
:104DC0005B10A37353682361E7E700BF800F0020E7
:104DD00007B50222030A8DF8050001A910468DF8D7
:104DE000043000F09FF903B05DF804FB10B5094CE6
:104DF00023786BB9FEF71EFC01210320FEF7DEF8D5
:104E00000120FEF731FC044B02221A6001232370BB
:104E100010BD00BF880F002000E100E030B587B072
:104E200003AC05462046FEF751FC94E80700144CFD
:104E30008DE8070084E807000020FEF725FC052D1B
:104E4000284638BF0520FBF7D3FA00220D4BFBF7AD
:104E500045FB00220C4BFBF76BFC04F093FFFBF7C8
:104E600037FEFEF7B5FC0120FEF71EFC0120FEF721
:104E70000BFC01211020FEF78DFC07B030BD00BFF8
:104E8000681100200000E04000408F4008B500207D
:104E9000FEF7FAFB00211020BDE80840FEF77ABCBF
:104EA000014BD3E900017047781100200000000099
:104EB0002DE9F04F87B003A8FEF708FC3DA7D7E91E
:104EC00000679DF81030BDF80C1000939DF80F009E
:104ED000059B9DF811909DF812A09DF81380324C0F
:104EE00001934FF0000E00220023A1F5FA6B00257C
:104EF0000FFA8EFCDC4513DB11F0030100F1FF30EB
:104F00001CD02A4D2A4E0024E1B2814204F1010452
:104F10001BDA2944097B7143521843F10003F3E77C
:104F2000BCF1000F02D01EF0030F04D112196B4127
:104F30000EF1010EDCE792197B41F9E71B4D1C4E87
:104F4000CCB2844201F1010128DB3C21AAFB01AB78
:104F50004FF46161E1FB09AB0099481E14491AEB5B
:104F6000080A01FB00F14BF1000B1AEB010A4BF1AF
:104F7000000B4FF47A7012EB0A0243EB0B03A2FB17
:104F8000004500FB0355019BB3FBF0F0221845F1EF
:104F900000031046194607B0BDE8F08F2C5D74433E
:104FA000121943F10003CBE70085E20108A10008D4
:104FB000805101008033E1010000000008B5FFF7D7
:104FC00077FF024BC3E9000108BD00BF7811002044
:104FD00008B5FFF76DFF034BD3E90023801A61EB9F
:104FE000030108BD7811002072B6704762B67047A1
:104FF000044B9860DA6802F01102012AFAD198682D
:10500000C0B270470090004010B500210E20FDF79F
:10501000D5FF01210E20FEF7CFFA00210E20FEF76A
:10502000CBFA154C01210E20FDF7C8FF4FF4007399
:10503000C4F800310723236002232361D4F804312C
:10504000802B0BD01420FDF737FD0023C4F80C3162
:105050006E20FDF731FD0123C4F80C31064B0748E3
:1050600002225A60064B4FF400121A600B210322F1
:10507000BDE81040FDF704BE0090004000FC014078
:1050800000E100E00520704710B5134CD4F804315E
:1050900023F02003C4F804316420FDF70DFDD4F89B
:1050A000043143F02003C4F80431D4F8043123F070
:1050B0008003C4F80431D4F8003143F02003C4F86D
:1050C0000031D4F8043143F00103C4F80431D4F8BA
:1050D0000831DB05FBD410BD0090004008B50A2064
:1050E000FDF7EAFC024AD2F80831DB05FBD408BD23
:1050F0000090004038B572B6094C0025C4F80C5138
:105100001420FDF7D9FCC020FFF772FF2846FFF7F7
:105110006FFF0123C4F80C31FFF7E0FF62B638BD22
:10512000009000402DE9F041104C0D461746804696
:10513000FFF768FA0023C4F80C314046FFF758FF28
:10514000013F6E1E3D44AE4209D10123B8F1840FE8
:10515000C4F80C3108D0BDE8F041FFF7BFBF16F826
:10516000010FFFF745FFEEE7BDE8F081009000403A
:10517000F8B5104C0D4617460646FFF743FA0021D6
:10518000C4F80C113046FFF733FF0846FFF730FF35
:10519000013F6E1E3D44AE4206D10123C4F80C31DE
:1051A000BDE8F840FFF79ABF0020FFF721FF06F89F
:1051B000010FF0E700900040F8B5114C0D4606468F
:1051C0001746FFF71FFA0023C4F80C310D20FFF734
:1051D0000FFF300AFFF70CFFF0B2FFF709FF013FA6
:1051E0006E1E3D44AE4206D10123C4F80C31BDE829
:1051F000F840FFF773BF16F8010FFFF7F9FEF1E76C
:105200000090004007B502AB012203F8011D1946CA
:10521000FFF7D2FF03B05DF804FB0000F8B5134CB4
:10522000174606460D46FFF7EDF90021C4F80C11AC
:105230001D20FFF7DDFE300AFFF7DAFEF0B2FFF7C0
:10524000D7FE0846FFF7D4FE013F6E1E3D44AE4236
:1052500006D10123C4F80C31BDE8F840FFF73EBF8A
:105260000020FFF7C5FE06F8010FF0E700900040B0
:1052700007B501220DF10701FFF7D0FF9DF80700E8
:1052800003B05DF804FB000070B505460E461446F9
:10529000FFF7B8F90E4B0022C3F80C210E20FFF7E0
:1052A000A7FE2846FFF7A4FE3546A4B2AB1B9BB26F
:1052B0009C4207D8064B0122C3F80C21BDE8704080
:1052C000FFF70CBF15F8010BFFF792FEEEE700BFEA
:1052D0000090004070B5144605460E46FFF792F95F
:1052E000104B0021C3F80C111E20FFF781FE284649
:1052F000FFF77EFE0846FFF77BFE3546A4B2AB1BE8
:105300009BB29C4207D8074B0122C3F80C21BDE891
:105310007040FFF7E3BE0020FFF76AFE05F8010BBF
:10532000EDE700BF009000400221FFF775BB0220AF
:105330007047000003220A210148FDF7DBBB00BFD4
:1053400000F0014004220A210148FDF7D3BB00BF51
:1053500000F00140074B0849186843F2390201FB8D
:10536000002018606FF00043B0FBF3F3C3EBC3738E
:10537000C01A7047280000206D4EC641002103E08E
:105380000B4B5B58435004310A480B4B42189A426E
:10539000F6D30A4A02E0002342F8043B084B9A4243
:1053A000F9D3FDF743FB00F015F8FCF783FBFEE7AC
:1053B00004AB000800000020D8090020D809002014
:1053C000A8110020FEE70000014B1868704700BFDD
:1053D0002C00002070B50F4E0F4D761BB61018BF75
:1053E000002405D0013455F8043B9847A642F9D172
:1053F0000A4E0B4D761B04F015FDB61018BF0024A5
:1054000006D0013455F8043B9847A642F9D170BD47
:1054100070BD00BFF8AA0008F8AA000800AB000899
:10542000F8AA000870B4860746D0541E002A41D05E
:10543000CAB2034602E014F1FF343BD303F8012B58
:105440009D07F8D1032C2ED9CDB245EA05250F2CA6
:1054500045EA054519D903F110022646103E0F2EE4
:1054600042F8105C42F80C5C42F8085C42F8045CBC
:1054700002F11002F2D8A4F1100222F00F0204F09F
:105480000F041032032C13440DD91E462246043A51
:10549000032A46F8045BFAD8221F22F003020432E2
:1054A000134404F003042CB1C9B21C4403F8011BDB
:1054B0009C42FBD170BC704714460346C2E700BF54
:1054C0000EB4F0B59CB021AC4FF4017254F8046BEB
:1054D000ADF8142002900690FBF732FD0C4B0194BE
:1054E000054632460B4F1868039523464FF6FF7664
:1054F000002402A907950A970E941394ADF816603C
:1055000000F004F91CB0BDE8F04003B0704700BFE4
:105510002C0000201955000800207047002A41D0B7
:1055200040EA010313F00303F0B425D1032A23D981
:1055300004680D68AC421FD1043A38D0A4F101359B
:1055400025EA040414F0803F2ED1043004310FE02A
:1055500050F8043B0E68A3F10134B34224EA03047B
:1055600001F1040126D1043A21D014F0803F1BD16F
:10557000032A07460D46EBD805780C78AC4202F1B9
:10558000FF331AD183B114B90EE06BB17AB110F8C0
:10559000012F11F8014FA24203F1FF33F5D0101B88
:1055A000F0BC7047104670470020F0BC70471046B2
:1055B000F0BC704729463846DEE72A46EFE700BFD1
:1055C0002DE9F84FDDF828900F46804616461D4617
:1055D0008A4600E0A2465446484614F801BB00F053
:1055E000E5FF5844427812F00802F3D1BBF12D0FC9
:1055F0004FD0BBF12B0F04BF94F800B00AF10204A6
:105600001DB1102D56D0AC4604E0BBF1300F60D078
:105610000A25AC46002A0CBF6FF000494FF0004944
:105620000021B9FBFCFE08460CFB1E9A05E029D0C0
:105630000CFB0030012114F801BBABF13003092B46
:1056400005D9ABF14103192B0BD8ABF137039D42C0
:105650000FDDB1F1FF3FEED08645E8D24FF0FF31CC
:10566000E9E7ABF16103192B03D8ABF157039D4276
:10567000EFDC4B1C13D002B1404246B1C1B93760D8
:10568000BDE8F88F9A45D3DA4FF0FF31D3E7BDE894
:10569000F88F94F800B001220AF10204B0E7222347
:1056A000C8F80030EEB1671E48463760BDE8F88F95
:1056B0008146F8E7BBF1300FA5D1237803F0DF0373
:1056C000582BA0D14FF0100C94F801B0654602346D
:1056D000A0E7237803F0DF03582BF3D00825AC466E
:1056E00098E74846BDE8F88F30B5064C064D24686B
:1056F000646B83B0002C08BF2C460094FFF760FF5A
:1057000003B030BD2C0000205C0400202DE9F04FD8
:105710008B46B1F90C10ADF52B7D8E0482460593B6
:1057200009D4DBF8643041F4005123F40053ABF8A2
:105730000C10CBF864301446A04600230693039364
:105740001F46049318F8013B0F935BB300F032FF40
:105750000F9B1844457815F0080528D0DBF8042085
:1057600011E000F027FFDBF800301A781044013315
:10577000427815070FD5DBF80420CBF80030013A4A
:105780000137CBF80420002AEBDC5946504602F0E2
:1057900009FA0028E5D04446A04618F8013B0F93CB
:1057A000002BD3D104980DF52B7DBDE8F08F252B70
:1057B00040F0868094F801902E462C4608F10103B3
:1057C000B9F1780F00F2FE82DFE819F09200FC02D6
:1057D000FC02FC02FC02FC02FC02FC02FC02FC02D9
:1057E000FC02FC02FC02FC02FC02FC02FC02FC02C9
:1057F000FC02FC02FC02FC02FC02FC02FC02FC02B9
:10580000FC02FC02FC02FC02FC02FC02FC02FC02A8
:10581000FC02FC02FC027900FC02FC02FC02FC021D
:105820004502FC02FC02FC02FC02FC026102610275
:105830006102610261026102610261026102610250
:10584000FC02FC02FC02FC02FC02FC02FC02FC0268
:10585000FC02FC024B029402FC029402FC02FC02D9
:10586000FC02FC028E02FC02FC028402FC02FC022E
:10587000FC02FC02FC02FC02FC02FC028002FC02B4
:10588000FC02C802FC02FC02FC02FC02FC02FC025C
:10589000FC02C202D202940294029402BC029A0058
:1058A000FC02FC029802FC02A402A2027602FC02A4
:1058B000FC027202FC026A02FC02FC0280029846B0
:1058C000DBF80430002B40F34C85DBF8003018F88F
:1058D000011C1A7891427FF465AFDBF80420013394
:1058E000013ACBF800300137CBF80420444653E7A7
:1058F0004FF0FF33049304980DF52B7DBDE8F08F36
:1059000002939C4B0693002303934FF00308DBF8AC
:105910000430002B40F3B38173060DD508F1FF3836
:10592000B8F1030F00F2CE80DFE818F0F400A00019
:1059300030006002CBF8003000F03CFEDBF80030B5
:105940001A781044013342781007E7D5DBF80420B9
:10595000013A002A07F10107CBF80420EADC594696
:10596000504602F01FF90028E6D0049A002ABFD062
:10597000BBF80C3013F0400F134618BF4FF0FF3345
:10598000049304980DF52B7DBDE8F08F631EB3F5ED
:10599000AE7F86BF6FF4AE7004EB00094FF00009D4
:1059A00052AB3A464F46DDF80C90089388BF40F260
:1059B0005D1446F458661D464FF00008DBF80030D1
:1059C0001878A0F12B014D2900F2F180DFE811F0E9
:1059D0003E01EF003E01EF00EF001B011501150134
:1059E000150115011501150115010E010E01EF003C
:1059F000EF00EF00EF00EF00EF00EF0008010801FB
:105A00000801080108010801EF00EF00EF00EF00B6
:105A1000EF00EF00EF00EF00EF00EF00EF00EF000E
:105A2000EF00EF00EF00EF00EF00D400EF00EF0019
:105A3000EF00EF00EF00EF00EF00EF0008010801BA
:105A40000801080108010801EF00EF00EF00EF0076
:105A5000EF00EF00EF00EF00EF00EF00EF00EF00CE
:105A6000EF00EF00EF00EF00EF00D400002C08BFC4
:105A70004FF0FF3416F0010540F07C81F10640F153
:105A8000258400F097FDDBF800301A7810440133CC
:105A90004278120711D4DBF80420CBF8003001352E
:105AA000013AAC42CBF8042007D0002AE9DC594681
:105AB000504602F077F80028E3D0DDF808802F4444
:105AC000444669E6002C08BF012416F0010540F0A9
:105AD0004083F20640F12D8409E01344CBF80030F6
:105AE0001544A41A02F05EF8002840F0E783DBF8C2
:105AF0000420DBF80030A24259465046EDDB121B71
