:020000040800F2
:10000000883400204D010008C5030108499E0008FE
:10001000A1000108953C0008193502080000000005
:100020000000000000000000000000001DF70108B3
:10003000A945000800000000910B010845020208D4
:100040006701000867010008450902086701000808
:100050006701000867010008AD4500086701000856
:1000600067010008670100086701000867010008D0
:100070006701000867010008670100089D45000846
:1000800067010008670100086701000867010008B0
:100090000000000067010008670100086701000810
:1000A0006701000867010008670100086701000890
:1000B0006701000867010008670100086701000880
:1000C0006701000867010008670100086701000870
:1000D0006701000867010008F59E00086701000835
:1000E0006701000867010008911301086701000813
:1000F0006701000800000000000000006701000820
:1001000067010008670100081DE401086701000895
:10011000670100086701000867010008670100081F
:10012000670100086701000867010008670100080F
:100130006701000867010008DFF80CD000F0E8FA5A
:1001400000480047E53D0208883400200648804703
:1001500006480047FEE7FEE7FEE7FEE7FEE7FEE7AC
:10016000FEE7FEE7FEE7FEE7410902083901000865
:100170002DE9F05F0546002092469B4688460646DC
:10018000814640241BE0284641464746224600F06F
:1001900035FA53465A46C01A914110D311461846B3
:1001A000224600F01CFA2D1A67EB01084F46224642
:1001B0000120002100F013FA17EB00094E41201E28
:1001C000A4F10104DFDC484631462A464346BDE837
:1001D000F09FD2B201E000F8012B491EFBD270471C
:1001E0000022F6E710B513460A4604461946FFF703
:1001F000F0FF204610BDCAB2401E10F8011F8A420F
:1002000002D00029F9D100207047421C10F8011BD0
:100210000029FBD1801A704730B5054600200346FF
:1002200000E05B1C934205D2EC5CC85C201A01D153
:10023000002CF6D130BD00000FB400B58DB010A970
:1002400009900B9000914FF0FF300A9000200C9025
:1002500005480690054807906A4609A80F9900F0DE
:10026000F1F90DB05DF814FB610600087F06000887
:100270002DE9FF5F1D464FF0FF3BD5E90146914652
:100280005F464FF00008A9697F1C01988847296ADA
:10029000824688470028F6D1BAF1FF3F0CD024F4FB
:1002A000C064002E19DD600614D5BAF12B0F09D0F9
:1002B000BAF12D0F0ED103E0584604B0BDE8F09F0F
:1002C00044F48064A9697F1C01988847761E8246A1
:1002D000002E02DDBAF1300F03D0B9F1000F26D0A5
:1002E00032E0A969761E44F400747F1C01988847A7
:1002F0008246002E05DDBAF1780F06D0BAF1580F0C
:1003000003D0B9F1000F10D01EE0B9F1000F02D0F8
:10031000B9F1100F18D1A969761E24F400747F1C5E
:10032000019888478246102002E0082000E00A2059
:10033000814609E008FB0908A969761E44F40074A7
:100340007F1C019888478246002E05DD49465046AD
:1003500000F064F90028EDDAE96901988847A00502
:1003600002D46FF00100A8E7E00725D1600613D59D
:10037000600502D5C8F1000000E0404629680A1D6A
:100380002A600968220501D5087015E0220701D509
:10039000088011E008600FE02868011D29600068EE
:1003A000210502D580F8008006E0210702D5A0F8DB
:1003B000008001E0C0F8008038467EE7F0B480EAB3
:1003C0000102D40F4200B2EB410F02D202460846AE
:1003D00011464A0042D0C30DDDB2C1F3C752AD1A77
:1003E000202D35DAC1F3160141F4000204B1524266
:1003F000C5F1200602FA06F12A411044B3EBD05FA2
:1004000023D0C4B1012DA0EBC35009DCF0BC4FF0E8
:10041000004202EAC352DBB200F5000000F049B925
:10042000400000F1807000EBC350A0F1807040EA02
:10043000D170490009E0490841EAC071A0EBC350FE
:1004400000F50000400800EBC350F0BC00F028B9F4
:100450006142012202EB4101001BF6E7F0BC70474C
:1004600081F00041AAE780F00040A7E780EA01029E
:1004700010B502F00043400022D04A001FD0010E08
:1004800001EB1261C0F35600C2F3560240F40000C3
:1004900042F40002A0FB022000047F39140400D0C3
:1004A000401C50EA124001D44000491EC2B20C0662
:1004B00004EBD010401C4008802A02D003E000204A
:1004C00010BD20F00100002900DA0020184310BD03
:1004D00030B480EA010202F0004530F0004221F021
:1004E000004013D090B1C30DD40DC2F31601C0F378
:1004F0001600E41A41F4000140F400027D349142F8
:1005000001D3641C00E04900002C02DA30BC00205A
:1005100070474FF400000023914201D3891A03432E
:1005200040084FEA4101F7D151B1914202D14FF059
:10053000004105E002D24FF0010101E06FF001013E
:1005400003EBC450284430BC00F0AAB8002801DBFB
:10055000C0F10040002901DBC1F10041814201D21C
:100560000120704700207047C10F80EAE070084406
:10057000CA079623002100F09CB89623002211465A
:1005800000F097B800F0004220F00040C10DC0F329
:10059000160040F400007F2901DA002070479629F8
:1005A00003DCC1F19601C84001E096398840002A79
:1005B000F4D04042704720F00040C10DC0F3160057
:1005C00040F400007F2901DA00207047962903DCFF
:1005D000C1F19601C8407047963988407047202A7B
:1005E00004DB203A00FA02F1002070479140C2F18A
:1005F000200320FA03F3194390407047202A04DBBC
:10060000203A21FA02F00021704721FA02F3D0408B
:10061000C2F1200291400843194670473A2800D29F
:10062000303820F02002412A01D3A2F1370088425D
:1006300001D34FF0FF307047026811441378016016
:1006400018467047D1600449516104491162002184
:100650001161114600F074B839060008350700082A
:10066000426842B1016811F8013B23B1521EC0E952
:100670000012184670470121C160881E7047426809
:100680005AB1C368016843B983688B4205D0491EDB
:10069000521CC0E90012002070474FF0FF30704735
:1006A0000029A8BF7047401C490008BF20F0010086
:1006B000704710B4B0FA80FC00FA0CF050EA010464
:1006C00004BF10BC704749B1CCF1200421FA04F4F6
:1006D00011FA0CF118BF012121430843A3EB0C01CF
:1006E000CB1D4FEA00614FEA102042BF002010BC32
:1006F000704700EBC35010440029A4BF10BC7047E2
:10070000401C490008BF20F0010010BC70470000E9
:10071000064C074D06E0E06840F0010394E807004E
:1007200098471034AC42F6D3FFF70AFD4471020833
:1007300064710208C0B24FF4F05100F097B90000A4
:100740002DE9F34F8BB04FF0000801F10C000C467F
:100750004FF0010B46460DF1080A01906269012134
:1007600001989047051E2DD0252D2CD0216A884751
:10077000C0B16269012101989047216A8847002829
:10078000F7D1411E62690198904700E0761CA1698B
:100790000B988847216A88470028F7D1E1690B98B0
:1007A0008847DBE7A1690B9888470746A84201D133
:1007B000761CD3E7E1690B9888477F1C02D1B8F11A
:1007C000000F6FD046E1002762693D463946019827
:1007D00090472A2804D16269012101989047012598
:1007E000DFF884926269012101989047A0F13001FD
:1007F0000A290AD24F45E5DC07EB870100EB4107E8
:10080000303FDFD445F01005ECE7E90601D46FF086
:1008100000476C280AD04C2814D0682815D06A28C4
:100820000DD074281CD07A281AD01DE062690121ED
:10083000019890476C2802D045F0040514E045F07B
:1008400002050DE045F020050AE0626901210198EA
:100850009047682802D045F0080505E045F400659A
:100860006269012101989047C4E9015765283DD08C
:1008700019DC58287AD00CDC452837D004DC252830
:1008800026D0412831D131E046282FD047282CD11D
:100890002CE05B2877D0612828D063287CD064289E
:1008A00023D15AE0D0E06F2848D008DC66281DD05C
:1008B00067281BD0692821D06E2816D127E0702820
:1008C00045D0732868D0752847D078280DD14DE0E1
:1008D000A1690B988847054625283FF469AFE1696F
:1008E0000B9888476D1C3FF46AAFB3E023466A4615
:1008F0006FF001000B99AFF300809EE045F04000DF
:100900006060A80723464FF0000236D43EE0E807B7
:100910007FF447AF2068011D21600068290501D5DB
:1009200006701BE7290701D5068017E7A90703D53D
:10093000F117C0E9006111E706600FE745F04000DC
:100940006060A80723464FF0080216D41EE040F668
:100950000E0125EA0100606016E045F0400060608D
:10096000A80723464FF00A0207D40FE045F04000E5
:100970006060A80708D5234610226FF001000B998C
:10098000AFF3008059E007E0234610226FF001002A
:100990000B99FFF76DFC50E04FF000094F464B46B6
:1009A000632802D05B2806D040E0E80601D401208D
:1009B000A06001273AE062690121019890475E2812
:1009C00005D14FF0010962694946019890472169B4
:1009D00039B900210A46534643F82120491C082909
:1009E000FADBB0B3216969B9C11700EBD1625311C9
:1009F0000AEB830122F01F02821A01200B6890404B
:100A000003430B6062690121019890475D28E8D19A
:100A1000B9F1000F09D00020514651F82020D243EF
:100A200041F82020401C0828F7DB02AB2246009743
:100A30006FF001000B99AFF3008000280CDA401C26
:100A400008D1BBF1000F05D04FF0FF300DB0BDE86D
:100A5000F08FFFE74046F9E7E90701D108F1010807
:100A600006444FF0000B79E6CCCCCC0C7F2801D9A2
:100A7000002208E0064A02EB5002C007127800D1BB
:100A8000120902F00F020120904008407047000058
:100A9000284E020830B58C1810F8012B12F00F0305
:100AA00001D110F8013B120906D110F8012B03E027
:100AB00010F8015B01F8015B5B1EF9D101E001F860
:100AC000013B521EFBD1A142E6D3002030BD000005
:100AD000B0B50168044688688A6880074FF0000056
:100AE00029D412F0010208BFB0BD886800F00500EB
:100AF000012821D14FF6E8728868C7F6FF721040CE
:100B0000023088600320086005F012FC054620686A
:100B10008068C00704BF0020B0BD00BF05F008FC1E
:100B2000411B2068032902D38168C90704D180686A
:100B3000C007F3D10020B0BDA06D40F01000A0654B
:100B4000E06D40F00100E0650120B0BD70B582B0FD
:100B500004460020019021688A68D20767D14FF6C9
:100B6000E8768868C7F6FF7606F12F0210420AD0B1
:100B7000A06D40F01000A065E06D40F00100E06560
:100B8000012002B070BD8868304040F001008860EC
:100B900042F20870C4F201000068000227D540F25A
:100BA000241042F66351C2F20000C0F23E510068C8
:100BB0008009A0FB0101012000EB91100190019838
:100BC00028B914E0019801380190019878B1019892
:100BD00001380190019850B10198013801900198B5
:100BE00028B101980138019001980028EAD1607E6F
:100BF00001281ED005F09CFB054620680168C90746
:100C000017D100BF8168C90704D18168314041F024
:100C10000101816005F08CFB411B2068032902D390
:100C20000168C907A4D00168C907EBD0002002B051
:100C300070BD002002B070BDB0B584B00025044680
:100C40000395CDE901550FF057F842F2C860C2F2A2
:100C5000000003F023FF002818BF03F0ABFC42F2B2
:100C6000C86001A90395CDE90145C2F2000004F076
:100C700047F9002818BF03F09DFC42F2C860C2F299
:100C8000000004F0E7FC002818BF03F093FC42F2D8
:100C9000C8644FF0FF31C2F20004204604F060FC4B
:100CA000204604F007FD204604F0DCFA0546204605
:100CB00004F066FA284604B0B0BD00002DE9F04FFC
:100CC0009FB01BAE0C46169000211022304623F038
:100CD0005FF930463146224622F032FC9DF86E2004
:100CE0009DF86D109DF86F309DF870706FF078056D
:100CF000D009069205930497079140EA41001590A8
:100D00008DF86D00D80940EA420014908DF86E000D
:100D1000F80940EA43008DF86F0013909DF87120A8
:100D2000D009039240EA47008DF8700012909DF8B8
:100D30007230D809029340EA42008DF87100119098
:100D40009DF873C04FEADC1040EA43008DF8720052
:100D500010909DF87420D00940EA4C008DF8730083
:100D60000F90C8099DF96CA040EA4A08BAF1000F3B
:100D70008DF86C804FFA88F89DF875704FEAD7109F
:100D800040EA42008DF874000E909DF876004FEA1C
:100D9000D01141EA47018DF875100D919DF87790BB
:100DA0004FEAD91141EA40018DF876100C919DF877
:100DB00078304FEAD31141EA49018DF877100B9151
:100DC0009DF879E04FEADE1141EA43018DF8781091
:100DD0000A919DF87AB04FEADB1141EA4E018DF895
:100DE000791008919DF87B604FEA4601B8BF85EA0B
:100DF0004601F6098DF87B1046EA4B058DF87A50CE
:100E00000995D4F81461102E6DD194F8010194F86D
:100E1000022194F8036194F8047188EA000315989C
:100E200084F801315040129A159084F80201149808
:100E30007040149084F803011398784084F80401FA
:100E4000139094F805015040119A84F8050112900E
:100E500094F806015040109A84F80601119094F815
:100E6000070150400F9A84F80701109094F8080188
:100E700050400E9A84F808010F9094F809015040F0
:100E80000D9A84F809010E9094F80A0182EA00068E
:100E90000C9A84F80A6194F80B0150400B9A84F87C
:100EA0000B0194F80C7182EA07080A9A84F80C8105
:100EB00094F80D7182EA070C089A84F80DC194F831
:100EC0000E7182EA070E099A84F80EE194F80F5128
:100ED00082EA050984F80F9194F8105181EA050A15
:100EE00084F810A122E100964E00B8F1000F6FF0D7
:100EF000780AB8BF8AEA410601968DF87B60CBF389
:100F00008016089D46EA450508958DF87950CEF380
:100F100080160A9D46EA45060A968DF87860C3F366
:100F200080130B9E43EA46030B938DF87730C9F389
:100F300080130C9E43EA46030C938DF87630C0F381
:100F400080100D9B40EA43000D908DF87500C7F3AB
:100F500080100E9B40EA430043460E908DF87400CB
:100F6000C2F380100F9A40EA420A8DF873A0CCF3C6
:100F70008010109A40EA420C02988DF872C0C0F3BB
:100F80008010119A40EA420E03988DF871E0C0F388
:100F90008010129A40EA420804988DF87080C0F3DD
:100FA0008010139A40EA420B05988DF86FB0C0F399
:100FB0008010149A40EA420706988DF86E70C0F3CC
:100FC0008010159A40EA420507988DF86D50C0F3DD
:100FD000801040EA4303C8B20999C0098DF86C300B
:100FE00040EA4109009880218DF87A90204480F8E9
:100FF0000111D4F8140101300F28C4F8140129D8C4
:10100000002100BF204480F80111D4F81401013000
:101010001028C4F814011DD2204480F80111D4F81E
:10102000140101300F28C4F8140113D8204480F8AB
:101030000111D4F8140101300F28C4F8140109D8A3
:10104000204480F80111D4F8140101301028C4F8AC
:101050001401D7D394F8010194F8021194F80321F4
:1010600094F80461434085EA01000E9984F8013147
:10107000159084F8020187EA02000B9A149084F814
:1010800003018BEA060084F80401139094F805012B
:1010900080EA080084F80501129094F8060180EABD
:1010A0000E0084F80601119094F8070180EA0C0004
:1010B00084F80701109094F8080180EA0A0084F887
:1010C00008010F9094F8090148400D9984F809012E
:1010D0000E9094F80A0181EA00060C9984F80A61DE
:1010E00094F80B01484084F80B0194F80C1182EA43
:1010F00001080A9A84F80C8194F80D1182EA010C17
:10110000089A84F80DC194F80E1182EA010E019A32
:1011100084F80EE194F80F1189EA010984F80F911F
:1011200094F8101182EA010A84F810A1214611F8FE
:10113000F15F5D40159B0D7094F8F25094F8F370D8
:1011400094F8F4B094F8F5205D40149B84F8F250C4
:1011500083EA0705139B84F8F35083EA0B05129B7F
:1011600084F8F4505A40119B84F8F52094F8F62046
:101170005A40109B84F8F62094F8F7205A400F9BB1
:1011800084F8F72094F8F8205A400E9B84F8F82051
:1011900094F8F9205A4084F8F92094F8FA20724023
:1011A00017AE84F8FA2094F8FB205040102284F8FF
:1011B000FB0094F8FC0080EA080084F8FC0094F836
:1011C000FD0080EA0C0084F8FD0094F8FE0080EA3F
:1011D0000E0084F8FE0094F8FF0080EA090084F80D
:1011E000FF0094F8000180EA0A0084F8000130460C
:1011F00022F05AFE16993046224622F0A1F91BA889
:101200000021102222F0C4FE1FB0BDE8F08F0000C4
:10121000B0B50446F13000211022002522F0B8FEBE
:10122000C4F8145120460021F022BDE8B04022F05D
:10123000AFBE000002460846102122F09DBB000010
:101240002DE9F04F85B00E46D0F8141190460546B2
:10125000002900F09C806818C1F11007444631460F
:10126000474538BF3C4600F20110A2B222F01CFEF6
:10127000D5F8140147452044C5F8140180F01481C5
:101280001028C0F01181A94695F8011119F8F10F45
:10129000484089F8000095F8F20095F8027195F839
:1012A000F31095F8F42095F8F530784001AF85F803
:1012B000F20095F80301484085F8F30095F8040121
:1012C0005040102285F8F40095F80501584085F843
:1012D000F50095F8F60095F80611484085F8F600F7
:1012E00095F8F70095F80711484085F8F70095F84C
:1012F000F80095F80811484085F8F80095F8F900CD
:1013000095F80911484085F8F90095F8FA0095F824
:101310000A11484085F8FA0095F8FB0095F80B1182
:10132000484085F8FB0095F8FC0095F80C11484002
:1013300085F8FC0095F8FD0095F80D11484085F8FA
:10134000FD0095F8FE0095F80E11484085F8FE0066
:1013500095F8FF0095F80F11484085F8FF0095F8C3
:10136000000195F810114840494685F800013846BB
:1013700022F09AFD384639462A4622F0E1F84846DE
:101380003946102222F090FDA8EB04082644B8F15B
:10139000110FC0F08080A8F1110005F1F10A0DF1E4
:1013A000040B474620F00F0995F8F100347895F8C2
:1013B000F21095F8F32095F8F430604085F8F100CC
:1013C0007078484085F8F200B0785040102285F8D7
:1013D000F300F078584085F8F40095F8F50031797D
:1013E000484085F8F50095F8F6007179484085F891
:1013F000F60095F8F700B179484085F8F70095F8C0
:10140000F800F179484085F8F80095F8F900317A4C
:10141000484085F8F90095F8FA00717A484085F857
:10142000FA0095F8FB00B17A484085F8FB0095F882
:10143000FC00F17A484085F8FC0095F8FD00317B0E
:10144000484085F8FD0095F8FE00717B484085F81E
:10145000FE0095F8FF00B17B484085F8FF0095F845
:101460000001F17B4840514685F80001584622F0C2
:101470001BFD584659462A4622F062F85046594606
:10148000102222F011FD103F1036102F8CD8A8F139
:101490001000A0EB090805F201101FFA88F231468E
:1014A00022F002FDC5F8148105B0BDE8F08F000000
:1014B00010B582B00DF1070008F064FE18B10224E7
:1014C000204602B010BD9DF8070047F2F30300214B
:1014D00000220024C0F602030090002021F0B2F99F
:1014E000204602B010BD0000007800F0FE01302957
:1014F0001CBF0220704780B5303818BF012009F0AA
:101500009DFB002080BD00002DE9F04F97B013A88F
:1015100008F062FE20B10124204617B0BDE8F08F2C
:101520009DF851009DF854609DF855709DF84C80D1
:101530009DF84D909DF84EA09DF84FB09DF85040FD
:101540009DF853509DF857109DF858209DF859303C
:101550009DF85AC09DF85BE012909DF852001190E2
:101560009DF85600CDE908670AAE86E80F508DE871
:10157000000F45F67A5304940021002200241298AB
:10158000C0F6020305901198CDE90605002021F070
:1015900059F9204617B0BDE8F08F00002DE9F04F53
:1015A00003AF85B08146FEF730FE072101EB400016
:1015B00020F00700ADEB0008C546B9F1000F2AD0B6
:1015C0004846FEF722FE4FF0FF314AF6AB230022D9
:1015D000002401EB40010138CAF6AA23A4FB0356FC
:1015E00082420DD2760806EB46060236A64207D1A5
:1015F0003A2608F8046001348C42EFD308E000BFBB
:1016000019F80260013208F8046001348C42E5D315
:10161000002008F801008EB0A7F11C020DF1200C8B
:1016200002F10F0002F10E0102F10D0302F10A04B2
:1016300002F10C0602F10B0502F1080E8CE87000B5
:10164000CDE90B310D90D01C911CD31D141D02F15E
:10165000090C961D551DCDE9001045F68C7102A8A8
:1016600070C0CDE9053E531CC0F602014046CDF8DE
:101670001CC022F0DDFC0EB010280BD1A7F11C0518
:10168000284609F0E1FB58B10120A7F10C04A5465A
:10169000BDE8F08F0120A7F10C04A546BDE8F08F4E
:1016A0008EB005F10F0005F10E0105F10D0205F1F7
:1016B0000C0305F10B0605F10A0405F1090C05F10F
:1016C000080ECDE90846CDE90A32CDE90C10E81C38
:1016D000A91CEA1DAB1D6E1D2C1DCDE9001045F6A1
:1016E0008C71CDE90246CDE904326B1C40462A4696
:1016F000CDE906ECC0F6020122F09AFC0EB01028EB
:101700000BD1A7F11C0009F0D3FA002818BF012063
:10171000A7F10C04A546BDE8F08F0220A7F10C0448
:10172000A546BDE8F08F00002DE9F04F97B013A853
:1017300008F06EFD20B10124204617B0BDE8F08FFF
:101740009DF851009DF854609DF855709DF84C80AF
:101750009DF84D909DF84EA09DF84FB09DF85040DB
:101760009DF853509DF857109DF858209DF859301A
:101770009DF85AC09DF85BE012909DF852001190C0
:101780009DF85600CDE908670AAE86E80F508DE84F
:10179000000F45F67A530494002100220024129889
:1017A000C0F6020305901198CDE90605002021F04E
:1017B00049F8204617B0BDE8F08F00002DE9F0474A
:1017C00003AF84B08046FEF720FD072101EB400007
:1017D00020F00700ADEB0004A546B8F1000F26D0BD
:1017E0004046FEF712FD4FF0FF314AF6AB2C0022C7
:1017F000002501EB40010138CAF6AA2CA5FB0C36E6
:1018000082420BD2730803EB43030233AB4205D190
:101810003A26665501358D42F0D306E018F802608D
:101820000132665501358D42E8D3002060548EB0F8
:10183000A7F11C020DF1200E02F10E0102F10D03C1
:1018400002F10A0002F10F0C02F10C0602F10B0585
:1018500002F107088EE86100CDE90B31D11C931C21
:10186000CDF834C0101D02F1080E961D551D02F171
:10187000090CCDE9003102A9531C81E8614145F60C
:101880008C712046CDF81CC0C0F6020122F0D0FBBE
:101890000EB010280BD1A7F11C0009F029FA00287E
:1018A00018BF0120A7F10C04A546BDE8F08702206F
:1018B000A7F10C04A546BDE8F0870000B0B582B0E2
:1018C0000078312805D0302825D10120012108F0E9
:1018D000B7FE0220012108F0B3FE42F2904540F22B
:1018E000754300244FF4FA510022C2F20005C0F6FD
:1018F00001030094284621F003FB284621F062FCF6
:1019000044F2DD2208200021C0F6000221F0BCF9DB
:10191000204602B0B0BD0224204602B0B0BD000097
:1019200080B540F2700000210022C2F20000006881
:1019300001284FF000000CBF07A302A320F082FF94
:10194000002080BD4368616E6E656C4D6F64653DBF
:101950003D300D0A000000004368616E6E656C4DFD
:101960006F64653D3D310D0A00000000007840F2D3
:101970006801C2F200013138B0FA80F04009086015
:1019800040F27001C2F200010860002070470000C0
:1019900010B582B00DF1070008F0B6FD18B10224B1
:1019A000204602B010BD9DF9070047F2F303002165
:1019B00000220024C0F602030090002020F042FF25
:1019C000204602B010BD000080B582B045F683719C
:1019D0000DF10702C0F6020122F02AFB012803D113
:1019E0009DF807000F2802D9022002B080BD40B246
:1019F00009F0DAFA002818BF012002B080BD00000B
:101A000010B586B005A808F053FC18B10224204692
:101A100006B010BD05980AA300220024C1B20391AC
:101A2000C0F307210291C0F30741000E019100901D
:101A30000020002120F006FF204606B010BD00BFA8
:101A4000253032583A253032583A253032583A2526
:101A50003032580D0A0000002DE9F04703AF82B084
:101A60008046FEF7D2FB072101EB400020F0070083
:101A7000ADEB0004A546B8F1000F26D04046FEF7B6
:101A8000C4FB4FF0FF314AF6AB2C0022002501EBDE
:101A900040010138CAF6AA2CA5FB0C3682420BD2B3
:101AA000730803EB43030233AB4205D13A26665574
:101AB00001358D42F0D306E018F802600132665518
:101AC00001358D42E8D30020605482B0A7F11000A8
:101AD000411CC21C831CCDE900100CA1204622F041
:101AE000A7FA02B004280BD157F8100C09F020F91E
:101AF000002818BF0120A7F10C04A546BDE8F08717
:101B00000220A7F10C04A546BDE8F0872568687897
:101B10003A256868783A256868783A2568687800D0
:101B2000B0B58AB008A808F0DDFB18B10224204641
:101B30000AB0B0BD9DF820009DF823309DF821101B
:101B40009DF822209DF824409DF825C09DF826E0B0
:101B50009DF827508DE81F5045F6A2530020002124
:101B6000002207950024C0F6020320F06BFE2046F9
:101B70000AB0B0BD2DE9F04703AF82B08046FEF752
:101B800044FB072101EB400020F00700ADEB00040F
:101B9000A546B8F1000F26D04046FEF736FB4FF0C1
:101BA000FF314AF6AB2C0022002501EB4001013841
:101BB000CAF6AA2CA5FB0C3682420BD2730803EBA3
:101BC00043030233AB4205D13A26665501358D42B7
:101BD000F0D306E018F802600132665501358D42F7
:101BE000E8D30020605486B0A7F11402911D531D64
:101BF000901C161DD51C02F1070C8DE86100CDE983
:101C0000033145F6B471531C2046CDF814C0C0F61C
:101C1000020122F00DFA06B008280BD1A7F114003A
:101C200009F0A6F8002818BF0120A7F10C04A5466A
:101C3000BDE8F0870220A7F10C04A546BDE8F087B7
:101C400010B582B00EF042F848B104460DF107001D
:101C500008F014FB38B10224204602B010BD012464
:101C6000204602B010BDA068012813D140F6CC5028
:101C7000C2F2000001789DF80700012908BF002882
:101C80000AD10DF1060008F0DFFA88B102242046DF
:101C900002B010BD9DF80700413013A300210022BF
:101CA00000240090002020F0CDFD204602B010BDA1
:101CB0009DF8060009280CD8012101FA00F010F463
:101CC000687F01D00AA305E010F0130F01D00AA32A
:101CD00000E00BA300200021002220F0B3FD00242F
:101CE000204602B010BD00BF25630D0A00000000B1
:101CF000422C53310D0A0000422C53300D0A0000D3
:101D0000422C53320D0A000010B504460DF0DEFFE0
:101D1000002804BF012010BD227801460220432A7A
:101D200016D0422A09D0412A18BF10BD8968002068
:101D300001290DD140F6CC5107E0886801281CBF6D
:101D4000072010BD40F6CC510120C2F200010870FE
:101D500008F038FEC11C002818BF0120002908BF68
:101D6000052010BD10B582B00DF1070008F0D6FABD
:101D700018B10224204602B010BD9DF8070047F2BA
:101D8000F303002100220024C0F60203009000208B
:101D900020F058FD204602B010BD0000007800F091
:101DA000FE0130291CBF0220704780B5303818BFB3
:101DB000012008F0FDFF002080BD000010B540F2BA
:101DC0007011C2F200010A7842B13AA3002000214A
:101DD0000022002420F036FD204610BD0278312A72
:101DE00006D0302A1CD142780124E2B1204610BD31
:101DF00042782C2A14D1C278303A0A2A10D3827839
:101E0000A2F13103072B0BD84A7142F63142A1F8F7
:101E100003208278303A8A70007831280DD12AE088
:101E20000124204610BD42F630424C71A1F8032037
:101E300000228A70007831281DD0302837D1012047
:101E4000012108F0FDFB2BA300200021002200242B
:101E500020F0F8FC40F2004001210122C4F600000D
:101E600004F060FA4FF090404FF40071012204F04A
:101E700059FA204610BD0220012108F0E1FB12A30F
:101E8000002000210022002420F0DCFC40F2004071
:101E900001210122C4F6000004F044FA4FF0904002
:101EA0004FF40071012204F03DFA204610BD0224D7
:101EB000204610BD506C656173652041542B52451E
:101EC0005345540D0A0000004C6D48616E646C650A
:101ED000724A6F696E2074797065203A41435449A3
:101EE000564154494F4E5F545950455F4F544141FC
:101EF000000000004C6D48616E646C65724A6F6949
:101F00006E2074797065203A4143544956415449D2
:101F10004F4E5F545950455F4142500010B582B05A
:101F200001A808F009FA18B10224204602B010BD39
:101F3000019845F6E963002100220024C0F602035F
:101F40000090002020F07EFC204602B010BD000072
:101F500080B582B045F6887101AAC0F6020122F070
:101F600067F801281EBF022002B080BD019808F06A
:101F70002BFF002818BF0120400002B080BD0000E8
:101F800010B582B001A808F0F1F918B1022420467A
:101F900002B010BD019845F6E9630021002200243B
:101FA000C0F602030090002020F04CFC204602B056
:101FB00010BD000080B582B045F6887101AAC0F658
:101FC000020122F035F801281EBF022002B080BDB8
:101FD000019808F009FF002818BF0120400002B056
:101FE00080BD0000B0B58AB008A808F0D9F818B1D3
:101FF000022420460AB0B0BD9DF820009DF8233091
:102000009DF821109DF822209DF824409DF825C0C0
:102010009DF826E09DF827508DE81F5045F6A25305
:1020200000200021002207950024C0F6020320F0C2
:1020300009FC20460AB0B0BD2DE9F04703AF82B0DD
:102040008046FEF7E2F8072101EB400020F0070090
:10205000ADEB0004A546B8F1000F26D04046FEF7D0
:10206000D4F84FF0FF314AF6AB2C0022002501EBEB
:1020700040010138CAF6AA2CA5FB0C3682420BD2CD
:10208000730803EB43030233AB4205D13A2666558E
:1020900001358D42F0D306E018F802600132665532
:1020A00001358D42E8D30020605486B0A7F11402B8
:1020B000911D531D901C161DD51C02F1070C8DE8B7
:1020C0006100CDE9033145F6B471531C2046CDF8CB
:1020D00014C0C0F6020121F0ABFF06B008280BD1F6
:1020E000A7F1140008F0C4FD002818BF0120A7F1D3
:1020F0000C04A546BDE8F0870220A7F10C04A54614
:10210000BDE8F08780B508F011FB002818BF01205A
:10211000400080BD80B594B007A81EF0E1F8079993
:1021200041F60E40084409A907901EF00FF9DDE9B9
:1021300009CEDDE90B23DDE90D0101F26C710130FF
:10214000CDE9002ECDE902C305A30022CDE90401AB
:102150000020002120F076FB002014B080BD00BFDD
:102160004C54494D453A2530326468253032646D0F
:102170002530326473206F6E20253032642F253075
:1021800032642F253034640D0A00000080B542F21D
:10219000283000210022C2F20000006801284FF020
:1021A00000000CBF06A302A320F04CFB002080BD62
:1021B0004C6F77506F7765723D3D310D0A0000001E
:1021C0004C6F77506F7765723D3D300D0A0000000F
:1021D00080B50078312818D030282BD142F2283031
:1021E00001210122C2F20000016040F20040012101
:1021F000C4F6000004F096F84FF090404FF40071E0
:10220000012204F08FF8002080BD42F22830002126
:102210000022C2F20000016040F200400121C4F639
:10222000000004F07FF84FF090404FF4007100225E
:1022300004F078F8002080BD10B582B001A808F045
:10224000AFF818B10224204602B010BD019847F241
:10225000F303002100220024C0F6020300900020B6
:1022600020F0F0FA204602B010BD000080B582B028
:1022700045F6807101AAC0F6020121F0D9FE0128BD
:1022800002D101987F2802D9022002B080BD08F057
:10229000BBFD002002B080BD2DE9F04F97B013A820
:1022A00008F098F820B10124204617B0BDE8F08F5F
:1022B0009DF851009DF854609DF855709DF84C8034
:1022C0009DF84D909DF84EA09DF84FB09DF8504060
:1022D0009DF853509DF857109DF858209DF859309F
:1022E0009DF85AC09DF85BE012909DF85200119045
:1022F0009DF85600CDE908670AAE86E80F508DE8D4
:10230000000F45F67A53049400210022002412980D
:10231000C0F6020305901198CDE90605002020F0D3
:1023200091FA204617B0BDE8F08F0000F0B593B0E9
:102330000FAA02F10D0102F10C0302F10B0402F1EC
:102340000A0502F10F0C02F10E0ED61C971CCDE906
:102350000854CDE90A31511D131DCDE90CECCDE92E
:102360000076941D02F1080ED51D02F1090CCDE98D
:10237000023104A9531C81E8304045F68C71CDF838
:102380001CC0C0F6020121F053FE10281EBF02201F
:1023900013B0F0BD0FA808F057FD002818BF0120AA
:1023A00013B0F0BD2DE9F04F97B013A808F02EF848
:1023B00020B10124204617B0BDE8F08F9DF85100F0
:1023C0009DF854609DF855709DF84C809DF84D9097
:1023D0009DF84EA09DF84FB09DF850409DF8535089
:1023E0009DF857109DF858209DF859309DF85AC017
:1023F0009DF85BE012909DF8520011909DF85600F8
:10240000CDE908670AAE86E80F508DE8000F45F663
:102410007A5304940021002200241298C0F602038B
:1024200005901198CDE90605002020F00BFA204612
:1024300017B0BDE8F08F00002DE9F04703AF84B07E
:102440008046FDF7E2FE072101EB400020F0070087
:10245000ADEB0004A546B8F1000F26D04046FDF7CD
:10246000D4FE4FF0FF314AF6AB2C0022002501EBE1
:1024700040010138CAF6AA2CA5FB0C3682420BD2C9
:10248000730803EB43030233AB4205D13A2666558A
:1024900001358D42F0D306E018F80260013266552E
:1024A00001358D42E8D3002060548EB0A7F11C02A4
:1024B0000DF1200E02F10E0102F10D0302F10A00EE
:1024C00002F10F0C02F10C0602F10B0502F10708F4
:1024D0008EE86100CDE90B31D11C931CCDF834C0DE
:1024E000101D02F1080E961D551D02F1090CCDE9D3
:1024F000003102A9531C81E8614145F68C712046E8
:10250000CDF81CC0C0F6020121F092FD0EB01028DB
:102510000BD1A7F11C0008F0B7FC002818BF012060
:10252000A7F10C04A546BDE8F0870220A7F10C0432
:10253000A546BDE8F087000010B582B00DF1070098
:1025400007F080FF18B10224204602B010BD9DF8AC
:10255000070047F2F303002100220024C0F6020323
:102560000090002020F06EF9204602B010BD00005F
:1025700080B582B045F683710DF10702C0F6020105
:1025800021F056FD012803D19DF80700072802D944
:10259000022002B080BD08F097FC002818BF01207F
:1025A000400002B080BD000010B584B00DF10F00F6
:1025B00007F0DAFD18B10224204604B010BD9DF8E2
:1025C0000F00092803D90224204604B010BD07A13A
:1025D00010A30022002451F82010CDE900010020B2
:1025E000002120F02FF9204604B010BD465F0208FC
:1025F0005E5F02083C5F0208705F02084C5F0208E1
:102600006A5F0208365F0208645F0208585F0208CA
:10261000525F020825643A25730D0A0010B582B096
:10262000044640F2701000213EA30022C2F20000D6
:10263000009101700020002120F004F92078352855
:102640002FD0382846D140F27000C2F20000006856
:1026500001283DD000284AD1A07800F0F8013029A7
:1026600038D145F29C514FF68062C0F60201CFF698
:10267000FF7201EBC000805840F27402C2F2000207
:102680001060A07801EBC0004FF68461CFF6FF71B7
:10269000405840F27801C2F20001086020783528E5
:1026A00025D140F26800C2F20000006801280FD076
:1026B000E8B9A078A0F1300102290BD832280CD05B
:1026C00031280ED0302812D140F26C0001210BE0ED
:1026D000607860B1012002B010BD40F26C000321AF
:1026E00002E040F26C000221C2F20000016045F6F7
:1026F00083710DF107022046C0F6020121F098FC1B
:10270000012803D19DF80700092802D9022002B050
:1027100010BD08F077FA002818BF0120400002B071
:1027200010BD00BF4A696F6E533D3D256400000037
:1027300010B582B001A807F0B3FE18B102242046FC
:1027400002B010BD019845F6E96300210022002483
:10275000C0F602030090002020F074F8204602B07A
:1027600010BD000080B582B045F6887101AAC0F6A0
:10277000020121F05DFC01281EBF022002B080BDD5
:10278000019808F0F1FB002818BF0120400002B0BA
:1027900080BD000080B584B002A807F061FE9DF8FE
:1027A0000C0047F2F30300210022C0F60203009060
:1027B000002020F047F8002004B080BDB0B582B002
:1027C0006D460446284607F04BFE45F683712A1DE8
:1027D0002046C0F6020121F02BFC0146022001290F
:1027E0000AD19DF804100F2906D8684608F0A8FB06
:1027F000002818BF0120400002B0B0BD10B582B063
:1028000001A807F067FE18B10224204602B010BDEF
:10281000019845F6E963002100220024C0F6020376
:102820000090002020F00EF8204602B010BD0000FD
:1028300080B582B045F6887101AAC0F6020121F088
:10284000F7FB01281EBF022002B080BD019808F0EE
:102850009BFB002818BF0120400002B080BD000093
:1028600080B584B002A807F0FBFD029847F2F3039D
:1028700000210022C0F60203009000201FF0E2FFBA
:10288000002004B080BD0000B0B582B06D460446A3
:10289000284607F0E5FD45F6887120462A46C0F631
:1028A000020121F0C5FB01281EBF022002B0B0BD0D
:1028B000684608F045FB002818BF0120400002B020
:1028C000B0BD00002DE9F04782B00446FDF79DFC45
:1028D0000546002077A101AA8DF80200ADF800009E
:1028E000204621F0A5FB01286FD1A9B2207802294A
:1028F0002ED3A0F1300109292AD80234691E14F818
:10290000010C8AB2022AC0F08A80A0F130020A2AA1
:1029100080F08580A91E20788AB2022A19D3A0F1FE
:102920003002092A15D8E91E60788AB2022A7AD3C1
:10293000A0F13002092A76D8043DA078211DAAB260
:10294000022A04D3A0F130020C460A2AD6D38C1EE8
:1029500029460A046AD03A2868D1607830283FD0E6
:10296000312851D14FF00108481E80B202283DD3D2
:10297000A0783A283AD1CD1E0026A8B202281DD34D
:1029800040F2D40AE94662A7C2F2000A04EB46000C
:10299000C1788DF80010394600798DF80100DAF819
:1029A00004008219484621F043FB012869D1023D09
:1029B0000136A8B2022801D3F22EE7D3280440D072
:1029C0000224204602B0BDE8F0873BA3002000218E
:1029D00000221FF037FF0224204602B0BDE8F08736
:1029E0004FF00008481E80B20228C1D245F66C6341
:1029F000002000210022C0F602031FF023FF022462
:102A0000204602B0BDE8F08743A300200021002249
:102A10001FF018FF0224204602B0BDE8F087013CF9
:102A20000A0498D102E001340A0494D12CA30020B6
:102A3000002100221FF006FF0224204602B0BDE85C
:102A4000F08740F2D400019900220024C2F2000075
:102A500046700170414608F039F8063006281FD844
:102A6000DFE800F023140519051E0400E5E707F070
:102A700049FE0524012808BF0324204602B0BDE812
:102A8000F0870224204602B0BDE8F08709242046E2
:102A900002B0BDE8F0870524204602B0BDE8F0870B
:102AA0000124204602B0BDE8F0870824204602B089
:102AB000BDE8F08725753A0041542B53454E44201C
:102AC000776974686F757420746865206170706CC4
:102AD00069636174696F6E20706F72740D0A000013
:102AE00041542B53454E44206D697373696E6720C2
:102AF0003A2063686172616374657220616674650F
:102B0000722061707020706F72740D0A00000000F6
:102B1000256868780000000041542B53454E44203E
:102B2000776974686F7574207468652061636B6E73
:102B30006F776C6564676520666C61670D0A0000DD
:102B400010B582B00DF1070007F0FEFC18B10224A9
:102B5000204602B010BD9DF9070047F2F3030021A3
:102B600000220024C0F60203009000201FF06AFE3D
:102B7000204602B010BD000080B582B045F68371DA
:102B80000DF10702C0F6020121F052FA01281EBF22
:102B9000022002B080BD9DF9070008F025FA002848
:102BA00018BF0120400002B080BD000080B582B097
:102BB0001CF0B6FD47F2F303009000200021002234
:102BC000C0F602031FF03EFE002002B080BD0000F0
:102BD000002808BF7047417802290BD003294FF025
:102BE00000004FF000014FF0000214BF1EA316A317
:102BF0001FF028BE2DE9F0438DB090F810E0B0F939
:102C0000128090F91490D0F804C0C168447D857D8D
:102C1000C67D077E427E837EC07ECDE909230B9070
:102C200045F6CC5306A8CDE900E8CDE90291CDE9FF
:102C300004C400210022E0C0C0F6020300201FF0FF
:102C400001FE0DB0BDE8F0832B4C52313236323AE2
:102C500020424541434F4E5F4E4F545F52454345DE
:102C6000495645440D0A00002B4C52313236323A57
:102C700020424541434F4E5F4C4F53540D0A0000D4
:102C800080B582B005A106A30022085C0021009057
:102C900000201FF0D7FD02B080BD00BF41424300BD
:102CA0002B4C52313236323A205357495443485F05
:102CB000544F5F434C4153535F25630D0A0000009E
:102CC00001284FF000004FF000014FF000020CBF50
:102CD00006A301A31FF0B6BD4E564D2044415441FA
:102CE00020524553544F5245440D0A004E564D2034
:102CF000444154412053544F5245440D0A000000B2
:102D00008AB24FF20001C0F603011FF06FBF00004E
:102D1000B0B50C46054603F00DF9002818BFB0BD4C
:102D200047F2E0504FF600410022C1F6FF70C0F2BA
:102D3000FF31006801EA80204FF47C31B1FBF0F1F3
:102D400048430121C0F57C30C00A01F039FC18B1BC
:102D5000BDE8B04003F016B84FF200002946224605
:102D60000023C0F6030001F045FCBDE8B04003F0CD
:102D700009B8000058B1017A012918BF7047407A9C
:102D800028B103A30020002100221FF05BBD704783
:102D90002B4C52313236323A2053454E445F434F2A
:102DA0004E4649524D45440D0A00000070B510B121
:102DB0004079002840D042F22834C2F20004206852
:102DC00001280ED040F2004001210022C4F600008C
:102DD00003F0A8FA4FF090404FF40071002203F086
:102DE000A1FA2DA300200021002200261FF02AFDB9
:102DF00040F27015C2F20005A97868780139814265
:102E0000DCBF2E8070BD206801280ED040F200404B
:102E100001210122C4F6000003F084FA4FF0904033
:102E20004FF40071012203F07DFAE81CFEF7C6FFA3
:102E300068780130687070BD12A300200021002264
:102E400000241FF0FFFC40F270150120C2F20005C3
:102E5000287042F22830C2F20000006801280ED02B
:102E600040F2004001210022C4F6000003F05AFAAB
:102E70004FF090404FF40071002203F053FAA5F890
:102E8000014070BD2B4C52313236323A204A4F4904
:102E90004E45440D0A0000002B4C52313236323A76
:102EA000204A4F494E204641494C45440D0A0000F6
:102EB0002DE9F04385B08946002877D0054690F883
:102EC0000080406830B36F7827B33CA30020002116
:102ED0000022F22F28BFF227CDE900871FF0B2FCB5
:102EE0007FB100203AA60024696800223346085CBE
:102EF0000021009000201FF0A5FC0134E0B28742C1
:102F0000F2D846F63273002000210022C0F60203F8
:102F10001FF098FCB9F1000F4DD099F8100005286A
:102F200049D899F9081099F9092099F90A30CDE999
:102F30000323CDE9018128A12DA3002251F820000F
:102F40000021009000201FF07DFC42F22830C2F2E8
:102F50000000006801280ED040F20040012100224C
:102F6000C4F6000003F0DEF94FF090404FF400711A
:102F7000002203F0D7F999F8110058B199F812001E
:102F800099F8131026A30022CDE9000100200021AA
:102F90001FF058FC46F63273002000210022C0F6D4
:102FA000020305B0BDE8F0431FF04CBC4FF0000831
:102FB000B9F1000FB1D105B0BDE8F0832B4C52310F
:102FC0003236323A2025643A253032583A00000031
:102FD0002530325800000000425F0208445F0208BA
:102FE000DC700208765F0208E47002087B5F02086A
:102FF0002B4C52313236323A2052585F25732C20F6
:10300000504F52542025642C2044522025642C20FB
:10301000525353492025642C20534E5220256400DE
:103020002C20444D4F444D2025642C2047574E20E2
:103030002564000040F270100021C2F200000180FF
:1030400020F06CFA80B540F270100021C2F200004E
:10305000017002F06FFF08B1002080BD47F2E05020
:103060004FF600410022C1F6FF70C0F2FF31006848
:1030700001EA80204FF47C31B1FBF0F1484301219B
:10308000C0F57C30C00A01F09BFA18B102F07AFE5C
:10309000002080BD20F042FA0120704710B507F0F3
:1030A00053FB411C0BD0C0B20024F8280ED10EA354
:1030B0000020002100221FF0C5FB204610BD04A304
:1030C0000020002100221FF0BDFB0124204610BD7E
:1030D0004E564D20444154412053544F52452046B2
:1030E00041494C45440D0A004E564D20444154413F
:1030F00020555020544F20444154450D0A000000F3
:1031000080B58EB002A81EF0DFF9039885A30021D8
:103110000022009000201FF095FB049886A3002158
:103120000022009000201FF08DFB0298032804D09D
:1031300001285BD0002840F0C480059845F6EE6376
:1031400000210022C0F60203009000201FF07AFB4D
:10315000069845F6B46300210022C0F602030090F1
:1031600000201FF06FFB45F62E6300200021002297
:10317000C0F602031FF066FB089845F63C430021A9
:103180000022C0F60203009000201FF05BFB0998AC
:1031900045F6514300210022C0F6020300900020B2
:1031A0001FF050FB02980021002200284FF0000081
:1031B00019BF45F66653C0F6020345F65253C0F6F2
:1031C00002031FF03FFB0A9845F699630021002295
:1031D000C0F60203009000201FF034FB0298002884
:1031E0007DD045F61053C0F602037EE044F66861D8
:1031F000059845F6F4430022C0F60201C0F602032A
:1032000051F82010CDE90001002000211FF01AFB29
:10321000069845F6804300210022C0F60203009084
:1032200000201FF00FFB079845F66B430022C0F605
:103230000203011DCDE90001002000211FF002FB67
:10324000089845F63C4300210022C0F60203009096
:1032500000201FF0F7FA099845F65143002100229B
:10326000C0F60203009000201FF0ECFA45F63D5333
:10327000002000210022C0F602031FF0E3FA0A98A2
:1032800045F6996300210022C0F602030090002059
:103290001FF0D8FA2DA30020002100221FF0D2FA3F
:1032A0000C9835A300210022009000201FF0CAFADC
:1032B00038A30020002100221FF0C4FA00200EB025
:1032C00080BD069845F6CE6300210022C0F60203B9
:1032D000009000201FF0B6FA00200EB080BD0B98C1
:1032E00045F60473C0F6020300900020002100227E
:1032F0001FF0A8FA45F64E63002000210022C0F618
:1033000002031FF09FFA0D9845F68D43002100221D
:10331000C0F60203009000201FF094FA00200EB0C7
:1033200080BD00BF313A20467265713D2025642082
:10333000487A0D0A00000000323A20506F7765721B
:103340003D2025642064426D0D0A000031303A2092
:103350004672657175656E6379206465766961741E
:10336000696F6E206E6F74206170706C696361624A
:103370006C650D0A0000000031313A204C6F774433
:10338000526F70745B3020746F20325D3D20256475
:10339000200D0A0031322042542070726F64756330
:1033A00074206E6F74206170706C696361626C650B
:1033B0000D0A000080B582B045F6807101AAC0F602
:1033C000020120F035FE012805D101981DF0F0FC26
:1033D000002002B080BD04A30020002100221FF0C5
:1033E00031FA022002B080BD41542B5452583A2089
:1033F0006E62206578706563746564207061636BCC
:10340000657473206973206D697373696E670D0A43
:103410000000000080B51DF053FE002080BD0000BC
:1034200070B5A4B0044618A83021FCF7D9FE0CA84A
:103430000DA90EAA12AB14AD15AE0DF13C0C0DF199
:10344000400ECDE908210A9011AA13A80BA9CDE9D5
:103450000065CDE90210CDE904324FA117AA16ABE1
:103460002046CDE906EC20F0E3FD0D2840F09180E8
:1034700018A81EF029F81099032900F28A8044F256
:103480004020179A1891C0F20F00B2F57A7F38BF2A
:1034900042431698199200F109021F2A79D8CA1ED0
:1034A0001A90B1FA81F0B2FA82F24009520902434D
:1034B0001598012A07D140F67953A0F59652C0F22B
:1034C00007039A4203D301293FD107283DD21B901D
:1034D00049F28910149A0029C0F2040003D1A2F520
:1034E0001673834207D3032932D100F5FA70A2F193
:1034F000640383422CD21C921298012849D81E9052
:103500001198012898BF1F900F98421EFE2A40D89C
:103510000129209033D0022935D003290BD0022075
:10352000A9BB0E9A40F6E826C0F20306A2F5167370
:10353000B3422CD8219219B1022924D003291ED1DB
:103540000C98042825D823901DE00229C0D020E043
:1035500001290DD1501F08280AD213981C92421F2E
:10356000032A16D804381D901298012811D8C6E7EE
:10357000022002290BD1B2F57A7FBCD907E00D9861
:10358000022806D8229018A81DF0A8FF002024B019
:1035900070BD022024B070BD25643A25643A2564CC
:1035A0003A25643A25642F25643A25643A25643A1D
:1035B00025643A25643A25643A25643A2564000076
:1035C00080B540F2004001210022C4F6000002F064
:1035D000A9FE4FF090404FF40071002202F0A2FECD
:1035E0001DF088FF03A30020002100221FF02AF90C
:1035F000002080BD546573742053746F700D0A00F1
:103600002DE9F043BFB0814640F200400121012284
:10361000C4F6000002F086FE4FF090404FF40071B7
:10362000012202F07FFE002049460A782C2A05D1AB
:1036300008E000BF01310A782C2A03D0002AF9D112
:1036400002E000BF0130F5E7B9F1000F3ED00128DC
:103650003CD148462C21FCF7CEFD451C2846FCF702
:10366000D4FDC10732D14FEA5008B8F1F20F88BF3C
:103670004FF0F208B8F1000F0DD00DF10A061BA7AC
:10368000444600BF284639463246FCF7D5FD023590
:103690000136013CF6D117A30020002100221FF0C3
:1036A000D1F845F6807101AA4846C0F6020120F023
:1036B000BFFC012817D101985FFA88F20DF10A01C9
:1036C0001DF088FD00203FB0BDE8F08345F61F7374
:1036D000C0F602030020002100221FF0B3F80220F0
:1036E0003FB0BDE8F08306A3F4E700BF2532686869
:1036F0007800000041545F746573745F74780A0049
:1037000041542B5454583A206E62207061636B65AB
:1037100074732073656E74206973206D69737369A7
:103720006E670D0A0000000080B540F200400121E4
:103730000122C4F6000002F0F5FD4FF090404FF476
:103740000071012202F0EEFD1DF08EFE002080BD12
:103750002DE9F04794B010A911AA12ABCDE90021D0
:1037600031A113AA20F064FC042852D1139D44F225
:103770004020C0F20F00E9087C299CBF4543139507
:103780001299CA087C2A9CBF484312900121012249
:1037900040F20040C4F6000002F0C4FD4FF090403B
:1037A0004FF40071012202F0BDFD1098B0B34BF64A
:1037B000AA3A002604AC0FF27C080DF10C09002790
:1037C000CDF6CC5A20461DF07FFE204605951DF013
:1037D00085FE1098CDE90056002101224346029053
:1037E00000201FF02FF8012049460422CDF80CA03C
:1037F0001DF0F0FC119801362844DDE912158842CD
:1038000098BF054610988642DCD3384614B0BDE810
:10381000F0870227384614B0BDE8F0870027384605
:1038200014B0BDE8F08700BF25752C25752C2575D3
:103830002C257500547820486F7020617420256411
:10384000487A2E202564206F662025640D0A00002A
:1038500080B582B01FF008F945F6E96300900020BA
:1038600000210022C0F602031EF0ECFF002002B08F
:1038700080BD000080B582B045F6807101AAC0F617
:10388000020120F0D5FB012807D1019804280DD3AF
:1038900045F6B043C0F6020300E007A30020002174
:1038A00000221EF0CFFF022002B080BDC0B21FF088
:1038B00019F9002002B080BD41542B564C3A2076B5
:1038C0006572626F7365206C6576656C2069732024
:1038D0006E6F742077656C6C207365740D0A000040
:1038E00070B586B045F6F533002402250126002088
:1038F00000210022C0F60203CDE9006502941EF00B
:10390000A1FF45F6D433042000210022CDE9005068
:10391000C0F60203002002941EF094FF1AA30020B8
:1039200000210022CDE9006502941EF08BFF05AC5A
:103930000020214606F022FE05981CA30022C0F3B9
:1039400007210291C0F30741000E01910090002071
:1039500000211EF077FF0120214606F00FFE05989A
:103960001BA30022C1B20391C0F307210291C0F34F
:103970000741000E01910090002000211EF062FF1F
:10398000002006B070BD00BF4D575F524144494F03
:103990005F56455253494F4E3A2020202056255815
:1039A0002E25582E25580D0A000000004C325F537A
:1039B0005045435F56455253494F4E3A20202020F0
:1039C000205625582E25582E25580D0A0000000097
:1039D00052505F535045435F56455253494F4E3AFC
:1039E00020202020205625582D25582E25582E25BC
:1039F000580D0A0010B5032840D8DFE800F0020B8C
:103A00001D2F40F200444FF480710022C4F60004E0
:103A1000204607E040F200444FF480710122C4F6D2
:103A20000004204602F07EFC20464FF48051002224
:103A300002F078FC002010BD40F200444FF4807189
:103A40000022C4F60004204602F06CFC20464FF42D
:103A50008051012202F066FC002010BD40F20044BB
:103A60004FF480710022C4F60004204602F05AFC94
:103A700020464FF48051012202F054FC002010BD7A
:103A80001621002808BF0F21084670470220704702
:103A900070B586B04C21002040F2004401266D46EE
:103AA0000490C5F60001C4F600040A6842F0020260
:103AB0000A600A6802F002020592059A0A6842F05A
:103AC00004020A600A6802F004020592059A0A6874
:103AD00042F002020A60096801F0020105910599AD
:103AE0000321CDE902014FF4807001962946009030
:103AF000204602F033FB4FF48050294600902046C8
:103B000002F02CFB20462946009602F027FB2046B7
:103B10004FF48051002202F005FC20464FF48071E2
:103B2000002202F0FFFB20460121002202F0FAFBF6
:103B3000002006B070BD00000120704700207047D3
:103B4000B0B500284FF0000418BF002901D1A0B281
:103B5000B0BD4FF6FE7201F0010C0129C0F2010266
:103B600005D100210024BCF1000FF0D063E0A1EBEF
:103B70000C0E002141F22103002400BF455C84EAC1
:103B8000052402EA4405240448BF5D4002EA4504D6
:103B90002D0448BF5C4002EA4405240448BF5D4050
:103BA00002EA45042D0448BF5C4002EA44052404AF
:103BB00048BF5D4002EA45042D0448BF5C4002EA6C
:103BC0004405240448BF5D4002EA45042D0448BF73
:103BD0005C40451802316D7884EA052402EA440508
:103BE000240448BF5D4002EA45042D0448BF5C4000
:103BF00002EA4405240448BF5D4002EA45042D045E
:103C000048BF5C4002EA4405240448BF5D4002EA24
:103C100045042D0448BF5C4002EA4405240448BF23
:103C20005D4002EA45042D0448BF5C408E45A5D1A5
:103C3000BCF1000F8BD0405C84EA002141F22100EE
:103C400002EA4103090448BF434002EA43011B045E
:103C500048BF414002EA4103090448BF434002EA29
:103C600043011B0448BF414002EA4103090448BF25
:103C7000434002EA43011B0448BF414002EA4103BA
:103C8000090448BF434002EA4304190448BF4440C2
:103C9000A0B2B0BDFEE70000B0B540F27815044612
:103CA000C2F200052869411C0929296103D1286154
:103CB000012028700DE0A96820784A1C2944AA60D8
:103CC0000876082A687800F10100687004BF0020B7
:103CD000A8606868002818BF804720780D2802D0A7
:103CE0000A2818BFB0BD6878072803D8BDE8B040DF
:103CF00000F01EB800206870B0BD000010B504468A
:103D000043F69940C0F600001EF0F2FE002C1EBFE4
:103D100040F27810C2F200004460002140F27810B6
:103D2000C2F20000C0E90211C0E90411017010BD27
:103D30002DE9F04F81B040F27815C2F200052878E5
:103D4000012818D146F23544C0F6020400200021B3
:103D5000002223461EF076FD0028F7D1EFF31080F5
:103D6000EFF3108172B6002129612970AA68EA6018
:103D700080F3108869612869002800F0FD8142F213
:103D8000AC4946F2EE3446F235474FF0000BC2F232
:103D90000009C0F60204C0F6020700BFE86829184F
:103DA000097E0D2918BF0A2940F0D6800130B0F1F4
:103DB000080118BF0146E960EFF31080EFF31081AE
:103DC00072B629690139296180F310886869002871
:103DD00000F0F2804FF000086FF0010C002309F8AA
:103DE0000080EFF310800090EFF3108072B619F8A6
:103DF0000300082809D100BF08F101080CF1010CEB
:103E0000013319F803000828F6D00028F6D1B8F1DC
:103E1000000F68D000279A46002000BF00244FF012
:103E2000FF3500BF09EB0502517808290CD09178C5
:103E3000082925D0D178082928D0117904350434EF
:103E40000829EFD101E000BF2546002D4BD0AAF193
:103E5000020A6C1E544511D2791B1944A1F1020EBD
:103E6000013911F0030224D009EB050B012A9BF85C
:103E7000011009F804100ED12C4618E022462AE061
:103E800044F00105002DE2D12DE000BF44F0020511
:103E9000002DDCD127E09BF802106C1C022A09F8E7
:103EA000051004D09BF8031009F80410AC1C4FF067
:103EB000000BBEF1030F52460DD34D46624600BFC4
:103EC0002919043A4E8894422E5305F104058E8830
:103ED0004E80F5D152460130ACF1020C023F29F878
:103EE00002B040459AD3009880F3108844F6C87514
:103EF00099F80300C0F602054A2840F08C8099F832
:103F000004004F2840F0AA800020002100229CA33A
:103F10001EF098FC42F22830C2F20000006801282E
:103F200000F0778040F27011C2F20001097850EA87
:103F300001025FD000286CD100296AD040F2004015
:103F400001210022C4F6000002F0ECF94FF090408D
:103F50004FF4007100225AE001291ED10130B0F166
:103F6000080118BF0146E960EFF31080EFF31081FC
:103F700072B629690139296180F310880020002177
:103F8000002223461EF05EFC0028F7D1C5F814B0CD
:103F9000286900287FF402AFEEE06A6940F21B2333
:103FA0009A420ED1C5F814B00020002100223B46F1
:103FB0001EF048FC0028F7D1286900287FF4EEAEF7
:103FC000DAE0531C013009F802106B61E860082840
:103FD00008BFC5F80CB0EFF31080EFF3108172B694
:103FE00029690139296180F31088286900287FF444
:103FF000D5AEC1E040F2004001210122C4F600002C
:1040000002F090F94FF090404FF40071012202F05D
:1040100089F999F80300532820D199F8040045281C
:104020001CD10020002100225AA31EF00BFC42F2FA
:104030002830C2F20000006801280FD040F2004092
:1040400001210122C4F6000002F06CF94FF090400B
:104050004FF40071012202F065F900BF99F80000E9
:10406000012641286AD199F80100542866D199F8AF
:10407000020028B346F660043F28C0F6020421D1AE
:1040800000200021002223461EF0DCFB0028F7D18F
:10409000002400BF04EB440005EBC000466900BFEC
:1040A00000200021002233461EF0CCFB0028F7D16F
:1040B0000134292CEED100BF1EF0FAFC0128FBD1FF
:1040C00000263BE005F10C04002500BF54E903166F
:1040D00009F102003246FCF79FF820B1013518348F
:1040E000292DF3D314E009EB060010F8021F89B163
:1040F0003D2912D03F290BD1A76800BF0020002125
:1041000000223B4600261EF09DFB0028F6D115E05C
:10411000012613E0616888470CE0014611F8012F81
:104120003F2A01D1807808B1226801E054F8042CBC
:10413000084690470646092888BF0A261BA040F279
:10414000781546F2EE3446F2354750F82660C2F252
:104150000005C0F60204C0F6020700BF00200021DF
:10416000002233461EF06EFB0028F7D1C5F814B0CC
:10417000286900287FF412AE01B0BDE8F08F00BFBF
:1041800020726561647920746F206A6F696E20699E
:104190006E0D0A0020726561647920746F2073656A
:1041A0006E6420646174610D0A0000008863020877
:1041B000E1630208BA630208FE630208356402087C
:1041C000F5620208EE6302082A6302080E63020821
:1041D000CD630208E26902082DE9F04381B09846F8
:1041E00016460F4604461EF0A9FE40F6F469054641
:1041F000C2F20009D9E906011CF054FB44F6D35180
:10420000281AC1F26201A0FB0112510B4FF4FA32DD
:104210005143081AC4EB041105EB4101084400F6B0
:104220004804A5420CD9C7EB0711281B4900B0FB75
:10423000F1F00130C0B201FB0044B0420BD202E009
:104240000020B04207D2D9E908011CF02BFBA0F6F0
:10425000D630844203D9002001B0BDE8F08345F296
:104260000070651BC0F60200C06D80470446B9F9B6
:104270000E00FCF779F90021CCF2A011FCF79EF8B2
:104280000146FCF7F3F84BF22D21CBF61D51FCF75C
:10429000EDF80646281BFCF770F90546304629461E
:1042A000FCF7E4F842F20041C4F67411FCF710F98F
:1042B0002946FCF783F820F019FD00210446FCF79D
:1042C00045F9002818BF2C462046FCF774F9C8F8B9
:1042D0000000012001B0BDE8F083000080B540F28D
:1042E000D4004322C2F2000041680A7040F2631118
:1042F000018006F007FA012805D042F29040C2F290
:1043000000001EF05FFF40F2D40000210022C2F244
:104310000000BDE8804006F0D9BB0000012000216C
:104320001EF0B0BD2DE9F041CAB0064602200029BA
:104330005DD0DDF84081B8F1000F58D068461F46C7
:1043400014460D46FCF764FF42F22C40C2F2000016
:104350000068014611F8102FBA4230D0014611F81A
:10436000212FBA422BD0014611F8322FBA4226D063
:10437000014611F8432FBA4221D0014611F8542FBB
:10438000BA421CD0014611F8652FBA4217D0014637
:1043900011F8762FBA4212D0014611F8872FBA428F
:1043A0000DD0014611F8982FBA4208D010F8A91F75
:1043B000B94201461EBF03204AB0BDE8F081013179
:1043C0006846FCF737FF26B1684631461022FCF7F5
:1043D00037FF6E46294622463046FCF731FF46A895
:1043E0003146FCF76BFC4698C8F8000000204AB044
:1043F000BDE8F08100284FF0000218BF002901D16C
:104400001046704710B548F2203201F0010C012926
:10441000CEF6B85209D14FF0FF330021BCF1000FA6
:10442000BDE8104000F0B68082E0A1EB0C0E4FF02A
:10443000FF330021445C634003F0010464421440F4
:1044400084EA5304C3F340035B42134083EA5403FA
:10445000C4F340046442144084EA5304C3F34003A9
:104460005B42134083EA5403C4F3400464421440A3
:1044700084EA5304C3F340035B42134083EA5403CA
:10448000C4F340046442144084EA5304C3F3400379
:104490005B42134083EA54034418023164788E452A
:1044A00083EA040303F00104C4F1000404EA0204F3
:1044B00084EA5304C3F34003C3F1000303EA020395
:1044C00083EA5403C4F34004C4F1000404EA020480
:1044D00084EA5304C3F34003C3F1000303EA020375
:1044E00083EA5403C4F34004C4F1000404EA020460
:1044F00084EA5304C3F34003C3F1000303EA020355
:1045000083EA5403C4F34004C4F1000404EA02043F
:1045100084EA5304C3F34003C3F1000303EA020334
:1045200083EA540386D1BCF1000FBDE8104031D0BE
:10453000405C584000F001014942114081EA5001BD
:10454000C0F340004042104080EA5100C1F34001F6
:104550004942114081EA5001C0F3400040421040FE
:1045600080EA5100C1F340014942114081EA500103
:10457000C0F340004042104080EA5100C1F34001C6
:104580004942114081EA5001C0F3400040421040CE
:1045900080EA5103DA4310467047000042F22C7063
:1045A000C2F2000001F0C8B970470000012001F01C
:1045B000C9BD0000EFF3108072B600BFFEE7000037
:1045C00080B584B0CDE902010220002A019001A843
:1045D00002D001F099FB02E0694601F025FB6FF083
:1045E0000101022808BF0121002808BF0146084632
:1045F00004B080BD2DE9F04F8BB084466FF004000D
:10460000002900F092818B4642EA0C0111F007016B
:1046100040F08B8147F2E05044F21009C1F6FF7080
:10462000C5F600090068D9F804100029C0F280819D
:104630004FF600419A466FF00063C0F2FF3101EA85
:1046400080200CEB02011944B1FBF0F303FB1011C5
:10465000CF0A0CF17841B1FBF0F303FB10104FEAE5
:10466000D02E0020BE4500F2608160464FF0FF383A
:10467000019702926FF3DF2018BFC0F50062069227
:10468000CDF800A05FEA4C70CDF814B0CDE903EC92
:104690002AD000211CF80100FF2840F0E7800CEB35
:1046A0000102501C430728D00078FF2840F0DE802C
:1046B000901C430729D00078FF2840F0D780D01CF9
:1046C00043072AD00078FF2840F0D080101D043125
:1046D0004007DFD1069A0CEB0100511A0022B2EB21
:1046E000D10F21D106E000BF069960460022B2EB4F
:1046F000D10F19D1891A69D182E0069A511A01396C
:104700000022B2EBD10F0FD1F4E7069A023A511A08
:104710000022B2EBD10F07D1ECE7069A033A511A07
:104720000022B2EBD10FE5D0CB0800270322D0E95D
:10473000006585EA080586EA08062E4340F0968063
:10474000951E00F108069D422CD2D6E9006585EA47
:10475000080586EA08062E4340F08880551E00F1C1
:1047600010069D4225D2D6E9006585EA080586EA4D
:1047700008062E437AD100F118069A4220D2D6E9D3
:10478000006585EA080586EA08062E436ED1161DE7
:104790000132203004379A423246C8D3FA00891ACF
:1047A00014D12DE047F001073046FA00891A0DD1E7
:1047B00026E047F002073046FA00891A06D11FE0CA
:1047C00030461746FA00891A1AD000BF4A1E8B1EBF
:1047D000CF1E0026855DFF2D48D1B24210D085192D
:1047E0006C78FF2C42D1B3420AD0AC78FF2C3DD17B
:1047F000B74205D0ED78FF2D38D10436B142E9D16A
:1048000006990020B0EBD10F2CD00698DDE9047496
:104810004FF0000A4FEAD00B08A8214608221EF0EC
:10482000E5F9DDE9086585EA080086EA080108433C
:1048300006D111E00120394632462B4601F0AEFA8E
:10484000D7E9000169407040084305D0D9F800005D
:104850000003FBD4EEE700BF0AF1010A0837083471
:10486000DA45D9D1DDF800A04DE000BFBAF1000F64
:1048700063D04FF000604FF400626546764600EB6F
:10488000CE24504621461EF0B1F9284606996FF312
:10489000DF208AB2504459461EF0A8F9012007A92A
:1048A000CDE909600220089008A801F0BDF90028B0
:1048B00048D10025D34600BF08A8594608221EF05B
:1048C00095F9DDE9087686EA080087EA08010843D9
:1048D00006D111E0012021463A46334601F05EFA46
:1048E000D4E9000171407840084305D0D9F80000B0
:1048F0000003FBD4EEE700BF013508340BF1080BD1
:10490000B5F5807FD8D102980699DDF814B0DDF8AE
:1049100010C0039B019A401A8B448C44591C93424B
:104920008E460690FFF4AEAE00200BB0BDE8F08FCF
:104930006FF003000BB0BDE8F08F6FF004000BB018
:10494000BDE8F08F6FF001000BB0BDE8F08F000004
:1049500070B544F210060446C5F6000601F0E8FC06
:1049600005463068C00309D501F0E2FC401BA042B7
:1049700024BF032070BD3068C003F5D43068C10780
:104980001CBF012131604CF2FA31084008D042F6D8
:1049900070013060C2F200014860012070BD00BFAC
:1049A000306840035CBF002070BD01F0C1FC401BBB
:1049B000A04224BF032070BDF2E7000080B51AF0CA
:1049C000AFFE40F6B831884282BFFE20C0B280BD43
:1049D000B0F5E16F3EBF0020C0B280BD40F2106173
:1049E000C0EBC010CFF6F97101EB400048F2B511F1
:1049F000C1F64E31A0FB0101C809C0B280BD000064
:104A000047F28050C1F6FF700068411C18BF704724
:104A100010B501F099FC044601F09CFC444001F003
:104A20009FFC6040BDE810407047000080B51AF060
:104A300097FE001280BD000070B5044647F2845016
:104A4000C1F6FF7050F8041C4A1C10D00A0EE17128
:104A500022710A0C090A6271A1710168E170026891
:104A6000100E110C120A6170A270207070BD01F05E
:104A70006BFC054601F074FC05442E0E01F06AFC47
:104A8000290CE671020CA171290A6171010E2571D0
:104A9000E170010A6170A270207070BD2DE9F041D3
:104AA00082B004460020019094F85400012804D1FB
:104AB0000225284602B0BDE8F081012084F85400A8
:104AC0002046FCF705F805462068014651F8083FE6
:104AD000A26DDB0745D122F4817248F203074FF63D
:104AE000E87C0232C7F6FF7CA265C268C368BB439C
:104AF00002EA0708C360836843F0004323F017030A
:104B000083604BF2FF73C0F202030E68B6F1FF3F01
:104B100031DC019E01360196019E9E4200F2A28187
:104B20000A68B2F1FF3F26DC019A01320192019A34
:104B30009A4200F297810A68B2F1FF3F1BDC019AAA
:104B400001320192019A9A4200F28C810A68B2F114
:104B5000FF3F10DC019A01320192019A9A42D4D9A6
:104B600080E142F01000002184F85410A06528462E
:104B700002B0BDE8F081D0F8B460876807EA0C079E
:104B800006F07F0607F1004787600F68B7F1FF3F27
:104B900027DC019F01370197019F9F4200F262814C
:104BA0000A68B2F1FF3F1CDC019A01320192019ABE
:104BB0009A4200F257810A68B2F1FF3F11DC019A74
:104BC00001320192019A9A4200F24C810A68B2F1D4
:104BD000FF3F06DC019A01320192019A9A42D4D930
:104BE00040E1D0F8B470826802EA0C0202F100429F
:104BF000826007F07F0216440A68B2F1FF3F27DCAB
:104C0000019A01320192019A9A4200F22B810A68BC
:104C1000B2F1FF3F1CDC019A01320192019A9A42E3
:104C200000F220810A68B2F1FF3F11DC019A0132E3
:104C30000192019A9A4200F215810A68B2F1FF3F8F
:104C400006DC019A01320192019A9A42D4D909E113
:104C5000D0F8B420876807EA0C0702F07F0207F15A
:104C60000047164487600A68B2F1FF3F27DC019ACB
:104C700001320192019A9A4200F2F4800A68B2F17C
:104C8000FF3F1CDC019A01320192019A9A4200F224
:104C9000E9800A68B2F1FF3F11DC019A013201920A
:104CA000019A9A4200F2DE800A68B2F1FF3F06DC08
:104CB000019A01320192019A9A42D4D9D2E0D0F8F5
:104CC000B420876807EA0C0702F07F0207F100476B
:104CD000164487600A68B2F1FF3F27DC019A01326F
:104CE0000192019A9A4200F2BD800A68B2F1FF3F38
:104CF0001CDC019A01320192019A9A4200F2B280C0
:104D00000A68B2F1FF3F11DC019A01320192019A67
:104D10009A4200F2A7800A68B2F1FF3F06DC019ACE
:104D200001320192019A9A42D4D99BE0D0F8B42082
:104D3000876807EA0C0702F07F0207F10047164474
:104D400087600A68B2F1FF3F25DC019A01320192C7
:104D5000019A9A4200F286800A68B2F1FF3F1ADC9B
:104D6000019A01320192019A9A427BD80A68B2F103
:104D7000FF3F10DC019A01320192019A9A4271D8E8
:104D80000A68B2F1FF3F06DC019A01320192019AF2
:104D90009A42D6D966E0D0F8B420876807EA0C07B3
:104DA00002F07F0207F10047164487600A68B2F1FB
:104DB000FF3F24DC019A01320192019A9A4251D8B4
:104DC0000A68B2F1FF3F1ADC019A01320192019A9E
:104DD0009A4247D80A68B2F1FF3F10DC019A0132CB
:104DE0000192019A9A423DD80A68B2F1FF3F06DC6F
:104DF000019A01320192019A9A42D7D932E0D0F851
:104E0000B420876807EA0C0702F07F0207F1004729
:104E1000164487600A68B2F1FF3F31DC019A013223
:104E20000192019A9A421DD80A68B2F1FF3F27DC2D
:104E3000019A01320192019A9A4213D80A68B2F19A
:104E4000FF3F1DDC019A01320192019A9A4209D872
:104E50000A68B2F1FF3F13DC019A01320192019A14
:104E60009A42D7D90020012584F85400A06D40F063
:104E7000100020F00200A065284602B0BDE8F081D5
:104E8000D0F8B410826802EA0C0201F07F0142F00F
:104E9000010231448260D0F8B42022F07F0242EA5D
:104EA000D101C0F8B410816801EA0C0141F002019F
:104EB000816001F03DFA064620688168C90715D077
:104EC00001F036FA811B20680329F6D38168C907EF
:104ED000F3D0A06D012540F01000A065E06D40F01A
:104EE0000100E065284602B0BDE8F081C16841EAF2
:104EF0000801C1600121A06D61F3010033E60000EB
:104F0000F0B581B00022009290F85420012A03D11C
:104F10000221084601B0F0BD012280F85420026849
:104F200093685B071CD44B680469022B1ED10427CD
:104F300044F00403C8F20007BB4240F098800B68BD
:104F40004FF6FF77C0F20307D94361EA0701976A7A
:104F500039409162B3F1FF3F40F38E80002108E1B8
:104F6000816D41F020018165012102E144F0040ED0
:104F700004244FF6FF7CC8F20004C0F2030CA645DF
:104F800040F09480D1F800E0134653F8284F0CEA23
:104F90000E0C4CEA040CC3F800C089684FF600738D
:104FA000BEF1FF3FC0F2FF3301EA0E2101EA030127
:104FB000536923EA0E2341EA0301516101DD002117
:104FC000D7E042F2087C44F20001C4F2010CCBF6B7
:104FD0000001DCF800308E4503F0E07200F09180B3
:104FE00041F20001CBF200018E4540F0948019029D
:104FF00000F1B480DCF8001021F0E071114342F6BA
:10500000635241F40001C0F23E52CCF8001040F26D
:105010002411C2F2000109688909A1FB0212910959
:105020000C2201EB410102EB810100910099002962
:1050300000F098800099013900910099002900F052
:1050400093800099013900910099002900F08E8029
:105050000099013900910099002900F08980009998
:10506000013900910021009A002AE3D181E00B6808
:10507000B3F1FF3F3FF772AF42F2087144F200070D
:10508000C4F20101CBF600070A68BB4258D042F2D5
:105090000007CBF20047BB4255D041F20007CBF2EC
:1050A0000007BB4258D102F0A0724EE0D1F800E0F8
:1050B000CEF384641EEA0C0F9EFAAEF503F01F0CCB
:1050C00018BFB5FA85F404FA0CF5076EC6690F240B
:1050D00004FA0CF4B6EB930F27EA040745EA070538
:1050E00005667FF65AAF4FEA9E63E44303F00F0371
:1050F00003FA0CF7134653F8286F264046EA070CCC
:1051000049E7D9012CD4DCF8001021F0E0711143FB
:1051100041F0807110E042F200040021CBF2004423
:10512000A64508BF13F4800323D1DCF8001021F05A
:10513000E071114341F48001CCF80010002118E027
:1051400002F4400201E002F0C0720B6823F0E07349
:105150001A440A6000210CE000210AE0002108E066
:10516000002106E0002104E0002102E0002100E02F
:105170000021002280F85420084601B0F0BD000054
:1051800070B500286AD0044600684FF6E876A16D35
:10519000C6F6FF7641F00201A1658168490723D573
:1051A0008168890706D4826806F18051114041F078
:1051B0001001816001F0BCF8054620688068400756
:1051C00012D501F0B5F8411B20680329F6D3816898
:1051D0004907F3D5A16D012541F01001A165E16DED
:1051E00041F00101E1650BE02046FBF771FC05464B
:1051F000002804BF0120A0652068816831408160DB
:10520000416840F29F32002691434160026040F2C3
:105210000022C168C8F23E321140C160016921F02C
:1052200040410161416921F007014161016A01F0DA
:10523000F0210162816A866242F20870C4F20100C4
:10524000016821F0FE710160204600F061F92846F6
:10525000E665266684F85460A66570BD012528467B
:1052600070BD00000068006C70470000F0B581B0B0
:1052700004460020002C009008D0254655F8580F11
:1052800038B121688868C0000ED540E0012001B027
:10529000F0BD204600F04CF9002084F85400E06591
:1052A00021688868C00032D44FF6E8728868C6F674
:1052B000FF72104042F6635200F18050C0F23E523D
:1052C000886040F22410C2F2000000688009A0FB50
:1052D00002029009022202EB40000090009830B9CF
:1052E00015E000BF009801380090009878B1009850
:1052F00001380090009850B1009801380090009853
:1053000028B100980138009000980028EAD18868F8
:10531000C00009D4A06D40F01000A065E06D40F021
:105320000100E065012000E000208A68C2F38002ED
:105330002B6803F01003D2182A6805D042F0100140
:105340000120296001B0F0BD22F4817202322A608E
:105350008A68D2076DD1D4E9022ED4F810C04FF478
:105360000013BCF1000FB8BF2CF00043267EA77ECF
:1053700042EA8632667E42EAC636226B46EA473603
:1053800046EA0E06002A18BF46F4805646EA030293
:1053900094F82C3042EA430394F82020012A09D1E2
:1053A000002F69D0A26D42F02002A265E26D42F0AA
:1053B0000102E265626A22B102F4E0721A43A36A52
:1053C000134340F20127CA68CFF6FE773A401A43EA
:1053D000CA606368E26C03F040473A4394F83C705B
:1053E000012F09D1D4E91076D4F848E03A4332438A
:1053F00042EA0E0242F001024FF602460F69B3F193
:10540000004FC1F6FF7607EA060742EA07020A6183
:1054100018BFB3F1404F0ED0B3F1804F0BD09A0CB0
:1054200042F20873C4F201031F6862F395471F60DC
:1054300001E0D4F810C0636B4A69BCF1000F22F0A0
:10544000070242EA03024A61A26B4F6927F0700724
:1054500047EA02124A610BD0BCF5001F3AD1226E16
:1054600002F00F070F2F28D002F0F007F02F09D11C
:105470008A6A62F00F022CE043F48033626A002AE9
:105480009AD19EE702F47067B7F5706F15D002F4F9
:105490007047B7F5704F10D002F47027B7F5702F32
:1054A0000BD002F47007B7F5700F06D002F07067EA
:1054B000B7F1706F01D0170F0E2F8F6A1C26E769A6
:1054C00006EB87076FF00F0607F01C0706FA07F7D1
:1054D0003A438A62496901F00701994208D10021E3
:1054E0000122E165A16D62F30101296001B0F0BD07
:1054F000A06D40F0100020F00200A06554F85C0F91
:1055000040F0010101202546296001B0F0BD0000F6
:1055100042F200410068C4F20101884218BF70479E
:105520006020C5F60000016821F400710160704739
:1055300042F200410068C4F20101884218BF70477E
:1055400081B06020C5F60000016841F4007101607F
:10555000006800F400700090009801B070470000EF
:10556000F0B581B0044640690D46082801D10827EE
:1055700004E02068C068C0074BD1042700F0D8FEC3
:1055800006462068016839421BD0A16D41F40071C4
:10559000A165C16811F4406F54D1A17E002951D199
:1055A000016809074ED58168490743D4416840F234
:1055B000011221F00C014160A16D91430131A165FF
:1055C00040E0691C18D04DB900F0B2FE20680168B7
:1055D000394225D001683942F6D0D6E700F0A8FE5E
:1055E000811B2068A94202D90168394218D001689C
:1055F0003942F3D0C9E700BF01683942C5D101681B
:105600003942C2D101683942BFD101683942F3D071
:10561000BBE7A06D40F02000A065012001B0F0BD07
:10562000002084F85400A06D40F00400A065032021
:1056300001B0F0BDA16D41F02001A165E16D41F027
:105640000101E165217E002904BF0C2101600020D9
:1056500001B0F0BD10B5044600688068400703D46F
:1056600094F85400012801D1022010BD012084F8D3
:1056700054002046FBF76AFA00281EBF002184F878
:10568000541010BD2168A06D40F601724FF6E8730A
:10569000C7F6FF7390431C2200F58070A0650020C0
:1056A000E0650A6084F854008A681A4004328A600F
:1056B00010BD0000B0B5044690F85400012804BFA6
:1056C0000220B0BD012084F8540020688168490799
:1056D00023D58168890707D44FF6E8728168C7F639
:1056E000FF7211401031816000F022FE05462068F3
:1056F0008068400711D500F01BFE411B206803297C
:10570000F6D381684907F3D5A06D214640F010001B
:10571000A065012051F85C2F0FE02046FBF7D8F977
:1057200018B1002184F85410B0BD214640F2011296
:1057300051F8580F20EA0202002042F001020A60EC
:10574000002184F85410B0BD68B390F825100229E8
:105750002CD101680A6822F00E020A60826C13687C
:1057600023F4807313600A6822F001020A60D0E912
:10577000102101F01C03012101FA03F35360D0E969
:1057800013235360426D32B1136823F480731360A6
:10579000D0E91623536080F825100021002280F8FC
:1057A0002420084670470121084670470421C16340
:1057B0000121002280F824200846704790F8251027
:1057C00002292FD101680A6822F00E020A600A68D5
:1057D00022F001020A60816C0A6822F480720A6079
:1057E000D0E9101202F01C03012202FA03F34B600D
:1057F000D0E913134B60416D31B10B6823F4807312
:105800000B60D0E916134B60002180F8241080F85B
:105810002520826B22B180B590470021BDE88040F1
:10582000084670470421C163012108467047000003
:105830004FF0010C00287CD02DE9F041026840F2C5
:10584000000E4CF6CD481C25C4F2020ECCF6CC4816
:1058500011680EF581630EF580649A4221F0010112
:1058600011604FF6F8313CBF0024C4F20204046416
:10587000CBF6FD7138BF01F580619A421144A1FB5E
:10588000081605EA96056FF0030101EA96074FF046
:1058900000010CFA05F54764116065606FF00704BC
:1058A00054FA82F4A4FB08454FF0070404EB1514E6
:1058B00038BF2C099A4204F01F040CFA04F440F695
:1058C0001C0CC4F2020C04650CF164056246C5644C
:1058D00038BF0EF50062D3198364D151CCF868400B
:1058E0004268531E032B14D802F07F0201260CF5E8
:1058F0009273013A02F003070CEB820206FA07F7F3
:1059000002F1E406C0E91563C765C2F8E410CCF8FB
:105910002871C163C0E91511C165C0E90B11C0E967
:105920000D1180F8241080F82510BDE8F0410846DC
:105930007047012108467047B0B5D0E910C4DCF8C3
:105940000020016804F01C0E0B685C0714D50424C9
:1059500004FA0EF414EA02050ED00A6892065EBF3D
:105960000A6822F004020A60CCF80440016B0029A6
:1059700043D0BDE8B04008479C0722D5022404FA72
:105980000EF414EA02051CD00A68920606D40A68CE
:1059900022F00A020A60012280F825200422C4F2C3
:1059A000020202F17C0399424FF0000188BF02F528
:1059B0008062146080F82410C16AF1B1BDE8B04083
:1059C00008471B0719D5082303FA0EF31A4008BF2E
:1059D000B0BD0A6822F00E020A60012101FA0EF23F
:1059E000CCF804200022C16380F8242080F8251020
:1059F000416B11B1BDE8B0400847B0BD012100289E
:105A000000F095802DE9F04F022240F2000C4CF698
:105A1000CD4880F82520C4F2020CCCF6CC480268B0
:105A20000CF5816A0CF5806552453CBF0025C4F237
:105A3000020505644FF6F835CBF6FD7538BF05F560
:105A4000806552451544A5FB08546FF0030505EA2F
:105A5000940E47F6F075C0F844E0146824EA050493
:105A60001460D0E90295D0E90476D0E90643D0F875
:105A700020B045EA090545EA070545EA060544EA76
:105A8000050443EA0403146843EA0B0343EA0403EE
:105A900013606FF0070353FA82F3A3FB08344FF04F
:105AA000070303EB141338BF2309524503F01F0308
:105AB00001FA03F540F68401C4F202010565A1F183
:105AC0000403C364A1F1680338BF0CF50063B9F5A2
:105AD000804F7344836404D1002242601A600D60D9
